:1000000080313328FF34FF347E1480318B1A0B1D6E
:100010000D289D310D25803131280B1F31282100FD
:10002000111E1C282000111E1C2823006F088A00A6
:100030006E080A00803131282100911E29282000F5
:10004000911E292823006D088A006C080A0080315F
:1000500031282100111C31282000111C31289D312C
:1000600086257E10090080313528803102208031BC
:10007000E400803103208031E500FC01FD015130B6
:100080008400003085000B309D310725803122002F
:10009000EE01EF01A03084000130850032309D3147
:1000A0000725803120308400023085003D309D31AD
:1000B00007258031A03084000230850050309D310A
:1000C00007257E1020008D310F2D200054082200BE
:1000D000D900200053082200D80020005208220036
:1000E000D700200051082200D60021005A08220023
:1000F000D900210059082200D80021005808220008
:10010000D700210057082200D6005908E1005808FE
:10011000E0005708DF005608DE00BC01BD016108A1
:10012000031D962880306002031CB32822005E085D
:100130002100DB0022005F082100DC0022006008B3
:100140002100DD00220061082100DE001F30DE36C4
:10015000DD0CDC0CDB0C890BA7285E085D045C045D
:100160005B0403198D2922005E082100DB002200B8
:100170005F082100DC00220060082100DD00220071
:1001800061082100DE000130DB35DC0DDD0DDE0D08
:10019000890BC4285E085D045C045B04031D002910
:1001A0005A08AB005908AA005808A9005708A80027
:1001B0005A08AF005908AE005808AD005708AC0007
:1001C0008A314122803121002B08C0002A08BF005B
:1001D0002908BE002808BD00BF30C4008030C3001D
:1001E0000030C2000030C1009431F42421004008E6
:1001F000DA003F08D9003E08D8003D08D7000800C3
:1002000022005E082100DB0022005F082100DC00E4
:10021000220060082100DD00220061082100DE00CC
:100220001F30DE36DD0CDC0CDB0C890B11295E087F
:100230005D045C045B040319532921302200EE00A5
:100240000030EF0000302100C0000030BF0000305F
:10025000BE000030BD005A08A3005908A20058088B
:10026000A1005708A0005A08A7005908A60058087E
:10027000A5005708A4009031C9208031210023082F
:10028000C4002208C3002108C2002008C100943124
:10029000F42421004008DA003F08D9003E08D800C5
:1002A0003D08D7000800E7302200BC07FF30BD3D05
:1002B0004C302100AB000030AA000030A900003013
:1002C000A8005A08AF005908AE005808AD005708FA
:1002D000AC008A314122803121002B08DA002A0843
:1002E000D9002908D8002808D7005A082200D900C8
:1002F000210059082200D800210058082200D70008
:10030000210057082200D6005908E1005808E000F3
:100310005708DF005608DE00A8298030220060025E
:100320007F30613B031808008030220060063F30B8
:10033000031961065E045F04031DA8290030210033
:10034000DA000030D9000030D8000030D7000800B3
:100350000D302200DE07FB30DF3D4A30E03D00304B
:10036000E13D5E082100DB0022005F082100DC0087
:10037000220060082100DD00220061082100DE006B
:100380001730DE36DD0CDC0CDB0C890BC1295B0879
:10039000813EDF00FF305C3DE0005F082200BC07CB
:1003A000210060082200BD3DF3302100DB00043055
:1003B000DC003530DD003F30DE00FF3022005E051E
:1003C0002100DF00FF3022005F052100E0007F30C8
:1003D000220060052100E1000030220061052100BB
:1003E000E2005F08DB076008DC3D6108DD3D620874
:1003F000DE3D5E082200E10021005D082200E000F1
:1004000021005C082200DF0021005B082200DE00E2
:100410006108D9006008D8005F08D7005E08D600E0
:1004200059082100DA00220058082100D9002200D2
:1004300057082100D800220056082100D700BF30FD
:100440002000BB008030BA000030B9000030B80096
:1004500021005A082000BF00210059082000BE00DA
:10046000210058082000BD00210057082000BC00D2
:100470008531F925803120003B082200DD00200075
:100480003A082200DC00200039082200DB002000AE
:1004900038082200DA0040302000BB000030BA00EB
:1004A0000030B9000030B80022005D082000BF0015
:1004B00022005C082000BE0022005B082000BD0076
:1004C00022005A082000BC008531F9258031200027
:1004D0003B082100C00020003A082100BF00200096
:1004E00039082100BE00200038082100BD0022008C
:1004F0005D082100C40022005C082100C300220026
:100500005B082100C20022005A082100C10094317A
:10051000F4248031210040082200C90021003F0856
:100520002200C80021003E082200C70021003D082B
:100530002200C60049082100AB0022004808210023
:10054000AA00220047082100A90022004608210035
:10055000A800220049082100AF002200480821001D
:10056000AE00220047082100AD002200460821000D
:10057000AC008A314122803121002B082200CD00BD
:1005800021002A082200CC00210029082200CB00EB
:10059000210028082200CA004D082100AB002200DB
:1005A0004C082100AA0022004B082100A9002200CB
:1005B0004A082100A80022004D082100AF002200B7
:1005C0004C082100AE0022004B082100AD002200A3
:1005D0004A082100AC008A314122803121002B08D9
:1005E0002200D10021002A082200D0002100290881
:1005F0002200CF00210028082200CE003E3020003B
:10060000BB00CC30BA00CE30B9001330B8003E3059
:100610002100AB007830AA009E30A9002630A80047
:10062000220051082100AF00220050082100AE0036
:1006300022004F082100AD0022004E082100AC002E
:100640008A314122803121002B082000BF00210087
:100650002A082000BE00210029082000BD0021003A
:1006600028082000BC008531F925803120003B0896
:100670002200D50020003A082200D40020003908CA
:100680002200D300200038082200D20051082100A7
:10069000AB00220050082100AA0022004F082100D0
:1006A000A90022004E082100A800220055082100C0
:1006B000AF00220054082100AE00220053082100A0
:1006C000AD00220052082100AC008A314122803165
:1006D00021002B082200A70021002A082200A600E2
:1006E000210029082200A500210028082200A400DA
:1006F0003F302000BB002A30BA00AA30B900AA302F
:10070000B8003E302100AB009130AA00E930A900CA
:10071000EE30A800220051082100AF00220050084E
:100720002100AE0022004F082100AD0022004E083B
:100730002100AC008A314122803121002B082000A9
:10074000BF0021002A082000BE0021002908200047
:10075000BD00210028082000BC008531F92580312A
:1007600020003B082200D50020003A082200D400D7
:10077000200039082200D300200038082200D200CF
:100780004D082100AB0022004C082100AA002200E5
:100790004B082100A90022004A082100A8002200DD
:1007A00055082100AF00220054082100AE002200AD
:1007B00053082100AD00220052082100AC008A310C
:1007C0004122803121002B082200AB0021002A08A1
:1007D0002200AA00210029082200A90021002808DF
:1007E0002200A80027082000BB00220026082000C5
:1007F000BA00220025082000B900220024082000A9
:10080000B80022002B082000BF0022002A08200088
:10081000BE00220029082000BD0022002808200078
:10082000BC008531F925803120003B082200A3005F
:1008300020003A082200A200200039082200A1006E
:10084000200038082200A0003F302100AB0000301B
:10085000AA000030A9000030A80022005D08210095
:10086000AF0022005C082100AE0022005B082100DE
:10087000AD0022005A082100AC008A3141228031AB
:1008800021002B082200D50021002A082200D400D4
:10089000210029082200D300210028082200D200CC
:1008A0005D082100AB0022005C082100AA002200A4
:1008B0005B082100A90022005A082100A80022009C
:1008C00055082100AF00220054082100AE0022008C
:1008D00053082100AD00220052082100AC008A31EB
:1008E0004122803121002B082200C10021002A086A
:1008F0002200C000210029082200BF002100280892
:100900002200BE003C082000AA0022003D08200072
:10091000AB00890D893B8909AC00AD0001308831FD
:100920000D20803120002D082200C50020002C0859
:100930002200C40020002B082200C30020002A0847
:100940002200C20049082100AB0022004808210013
:10095000AA00220047082100A90022004608210021
:10096000A800220023082000BB002200220820004B
:10097000BA00220021082000B9002200200820002F
:10098000B800220041082000BF00220040082000DB
:10099000BE0022003F082000BD0022003E082000CB
:1009A000BC008531F925803120003B082100AF00D3
:1009B00020003A082100AE00200039082100AD00D7
:1009C000200038082100AC008A314122803121000A
:1009D0002B082200AF0021002A082200AE002100CF
:1009E00029082200AD00210028082200AC00373081
:1009F0002100AB001730AA00F730A900D130A800C1
:100A0000220045082100AF00220044082100AE006A
:100A1000220043082100AD00220042082100AC0062
:100A20008A314122803121002B082000BB002100A7
:100A30002A082000BA00210029082000B90021005E
:100A400028082000B80022002F082000BF00220044
:100A50002E082000BE0022002D082000BD0022002C
:100A60002C082000BC008531F925803120003B088E
:100A70002200B30020003A082200B200200039080A
:100A80002200B100200038082200B00041082100F7
:100A9000A300220040082100A20022003F082100FC
:100AA000A10022003E082100A000220033082100FE
:100AB000A700220032082100A600220031082100F0
:100AC000A500220030082100A4009031C920803107
:100AD000210023082200B700210022082200B600CE
:100AE000210021082200B500210020082200B400C6
:100AF0005D082000BB0022005C082000BA00220034
:100B00005B082000B90022005A082000B80022002B
:100B100037082000BF00220036082000BE00220057
:100B200035082000BD00220034082000BC008531BB
:100B3000F925803120003B082200BB0020003A0844
:100B40002200BA00200039082200B900200038082D
:100B50002200B8003F302100AB003130AA007130D4
:100B6000A9008030A800220045082100AF00220023
:100B700044082100AE00220043082100AD002200FD
:100B800042082100AC008A314122803121002B082B
:100B90002000BB0021002A082000BA0021002908FB
:100BA0002000B900210028082000B80022003B08DE
:100BB0002000BF0022003A082000BE0022003908B1
:100BC0002000BD00220038082000BC008531F92536
:100BD00020003B082100DA0020003A082100D9005B
:100BE000200039082100D800200038082100D70053
:100BF000080020003B088039C0004008C8003B3591
:100C0000C0004008CA00BA1B4A144A080319162E2D
:100C10004A0A031D132E0030BB000030BA0000301A
:100C2000B9000030B800BA17BB011E2E0030BB005F
:100C30000030BA000030B9000030B8003F088039F9
:100C4000C0004008C90049084806031D48173F3541
:100C5000C0004008C900BE1B4914490803193E2EB4
:100C6000490A031D3B2E0030BF000030BE0000309B
:100C7000BD000030BC00BE17BF01462E0030BF00D3
:100C80000030BE000030BD000030BC004A08490200
:100C900003188C2E481F502E8030C0004008C80614
:100CA0004A08C0004008CB004908C0004008CA00FC
:100CB0004B08C0004008C9003808C0004008CB00FD
:100CC0003C08C0004008B8004B08C0004008BC0009
:100CD0003908C0004008CB003D08C0004008B900FA
:100CE0004B08C0004008BD003A08C0004008CB00D7
:100CF0003E08C0004008BA004B08C0004008BE00D3
:100D00003B08C0004008CB003F08C0004008BB00C3
:100D10004B08C0004008BF00CB014908C000C1011A
:100D20004108C3004A084002C200031CC303430831
:100D3000803AC40080304402031DA02E1A304202C3
:100D4000031CD42E20003B083A043904380403194C
:100D5000AB2E0130AC2E0030C0004008CB0000307C
:100D6000BB000030BA000030B9000030B8004908BC
:100D7000C0004008CA00D92E4B1CC42E4B36013887
:100D8000C0004008CB00C62E0310CB0C3818CB1780
:100D90000130C000BB37BA0CB90CB80CC00BCA2E5E
:100DA0000130C0004008CA07200049084A02031C5D
:100DB000BC2E481B0A2F4A08031DE72E0030BB003B
:100DC0000030BA000030B9000030B80008003C081C
:100DD000B8073D08B93D3E08BA3D3F08BB3D3B1C46
:100DE000842F4B1CF92E4B360138C0004008CB0035
:100DF000FB2E0310CB0C3818CB170130C000BB37CB
:100E0000BA0CB90CB80CC00BFF2E0130C000400862
:100E1000CA07842F3B08803AC0003F08803A40024E
:100E2000031D1C2F3E083A02031D1C2F3D083902EA
:100E3000031D1C2F3C0838020318542FFF30C0003C
:100E4000FF30C100FF30C200FF30C30038083C0251
:100E5000C40039083D3BC5003A083E3BC6003B088C
:100E60003F3BC7004408C0074508C13D4608C23D96
:100E70004708C33D4308BB004208BA004108B90017
:100E80004008B8008030C0004008C806CB09CB0A33
:100E90004B08031D5C2F0130B8070030B93D00300E
:100EA000BA3D0030BB3D5C2F3C08B8023D08B93B61
:100EB0003E08BA3B3F08BB3B3B083A0439043804C0
:100EC000031D822F4B08031D822F0030BB00003012
:100ED000BA000030B9000030B80008000130B83561
:100EE000B90DBA0DBB0D890B6F2FCB1B38144B1CE2
:100EF0007B2F03147C2F0310CB0D4A080319822F7C
:100F00000130CA02BA1F6E2FC901CB1F8F2F4B08A9
:100F10007F39031938188D2F8F2FC901C90A490845
:100F20000319BB2F0130B8070030B93D0030BA3D7E
:100F30000030BB3D3B1CBB2F3808C0003908C10046
:100F40003A08C2003B08C3000130C400C337C20CDA
:100F5000C10CC00CC40BA62F4308BB004208BA004A
:100F60004108B9004008B8004A0A0319BB2F0130F4
:100F7000C0004008CA074A0A031D4A08031DCB2FB8
:100F80000030BB000030BA000030B9000030B800BB
:100F90004A080319C8014A1CCF2FBA17D32F7F3034
:100FA000C0004008BA054A36C0004008BB00C81F50
:100FB0000800BB1708002000C00020004008903146
:100FC000FE208731003A0319DD2F20003F08AB00D7
:100FD0003E08AA003D089E312426873100302000BB
:100FE000AF00B000B1018831002087319C31D1249D
:100FF00087319E31CA268731013A031D0800F92F37
:1010000020003008AB002F08AA003108B2003208D7
:10101000AC0002309F31B72708002000B200320830
:10102000031DAD1F23282A09B4002B09B5002C0984
:10103000B6002D09B700B40A0319B50A0319B60A98
:101040000319B70A2B282D08B7002C08B6002B0867
:10105000B5002A08B4002D082C042B042A04031D13
:101060003A280030AD000030AC000030AB0000305A
:10107000AA0008009630AE002E08B300FE303705F7
:10108000031961280130AE002E08B3070130B736CE
:10109000B60CB50CB40C890B47283E280130AE00C5
:1010A0002E08B3070130B4070030B53D0030B63D1F
:1010B0000030B73D0130B736B60CB50CB40C890B17
:1010C0005B28FF303705031973284E28023033029E
:1010D000031C75280130B3020130B435B50DB60DCF
:1010E000B70D890B6D28B61F662833187F28FF308F
:1010F000B405FF30B5057F30B605FF30B7050310E6
:10110000B30C3308AE00AF01B001B1011830AE35F9
:10111000AF0DB00DB10D890B87282E08B4042F0830
:10112000B5043008B6043108B7043208031DAD1FFA
:101130009A28B7173708AD003608AC003508AB0061
:101140003408AA000800FF302000E400FF30E5006A
:10115000A701A80123004908FE3EF600FF3003184E
:101160000030F700770820002802031DB928760810
:1011700027020318CA282708B03E860001308700DE
:1011800001089F316627883101302000A707003011
:10119000A83DAA28FF306405F60000306505F70079
:1011A0002808F9002708F800A70A0319A80A7808F0
:1011B000B03E8600013087000108FA00FB01770885
:1011C0007B06031DE52876087A060319EA28230022
:1011D000CA1508006508F7006408F6007708F600ED
:1011E000F7012708B03E8600013087000108F800AB
:1011F000F90177087906031DFF2876087806031D94
:10120000E72823004C083006031D0800C801E32925
:101210000230F6007608C80032082000A60023003D
:1012200033082000A50023003535F6004808B03EFD
:10123000860001308700760881000130F6007608CC
:10124000C8073508F60076082000A0002608A80088
:101250002508A70020082507F60026080318260AF7
:10126000F70077082802031D37297608270203189C
:10127000F6292735A03E860001308700403FF60062
:10128000413FF7007708F80023004808B03E860089
:1012900001308700780881000130F6007608C80721
:1012A00020002735A03E8600013087000108F600A7
:1012B00023004808B03E8600013087007608810090
:1012C0000130F6007608C80701302000A70700307B
:1012D000A83D2A293208F600F70176082000A70069
:1012E0007708A8000830A735A80D890B73292300BB
:1012F0003308F600F70176082000A7047708A80451
:1013000023003408F600F70176082000A3007708D0
:10131000A4000830A335A40D890B8A2923003508C1
:10132000F600F70176082000A3047708A404273507
:10133000A03E8600013087002308C03F2408C13F3B
:101340000630F60076082300C800F6293308F600B8
:10135000F701F635F70D76082000A5007708A600FE
:101360000730A1000030A2002608A8002508A70029
:101370002300360820002507F60026080318260A51
:10138000F70077082802031DC729760827020318EB
:10139000A0292108B03E8600013087000108F60030
:1013A000F7012735A03E8600013087007608C03F50
:1013B0007708C13F0130A1070030A23D0130A707E7
:1013C0000030A83DB8293108F600F7017708003A47
:1013D0000319EB29F6297608033A03190829053A77
:1013E00003196A29163A0319A629F629FF302000A5
:1013F000E400FF30E500A701A80123004808F6003B
:10140000F701770820002802031D082A7608270222
:101410000318192A2708B03E86000130870001080A
:101420009F316627883101302000A7070030A83D92
:10143000FD296408F60023004808B03E860001300C
:101440008700760881000130F6007608C807200082
:101450006508F60023004808B03E8600013087008A
:10146000760881000130F6007608C80720001810C1
:101470002300C60122008E172100111623009E169C
:10148000080021002B0880392000CC004C082100E6
:10149000B0002B352000CC004C082100B600AA1B60
:1014A000361436080319612A360A031D5F2A0030F4
:1014B000AB000030AA000030A9000030A800AA1735
:1014C000692A0030AB000030AA000030A9000030CB
:1014D000A8002F0880392000CC004C082100B0065D
:1014E0002F352000CC004C082100B100AE1B311478
:1014F00031080319882A310A031D862A0030AF00FB
:101500000030AE000030AD000030AC00AE17902AC5
:101510000030AF000030AE000030AD000030AC0055
:101520003108031D3608031D9E2A0030AB00003031
:10153000AA000030A9000030A800080028082000F8
:10154000CC004C08AA0021002E089F3146278A3182
:1015500020002B082100BC0020002A082100BB002D
:101560003B082000CC00CD01CE01CF014F08210067
:10157000B50020004E082100B40020004D082100D5
:10158000B30020004C082100B2003C082000CC0031
:10159000CD01CE01CF014F082100BA0020004E0836
:1015A0002100B90020004D082100B80020004C089F
:1015B0002100B70029082000CC004C08AA00210017
:1015C0002D089F3146278A3120002B082100BC00BE
:1015D00020002A082100BB003B082000CC00CD01E0
:1015E000CE01CF014C082100B20720004D08210098
:1015F000B33D20004E082100B43D20004F082100DB
:10160000B53D3C082000CC00CD01CE01CF014C08F7
:101610002100B70720004D082100B83D20004E08EA
:101620002100B93D20004F082100BA3D2A082000C2
:10163000CC004C08AA0021002C089F3146278A3193
:1016400020002B082100BC0020002A082100BB003C
:101650003B082000CC00CD01CE01CF014C08210079
:10166000B20720004D082100B33D20004E082100A4
:10167000B43D20004F082100B53D3C082000CC00BF
:10168000CD01CE01CF014C082100B70720004D0845
:101690002100B83D20004E082100B93D20004F0830
:1016A0002100BA3D0830B235B30DB40DB50D890B2C
:1016B000532B29082000CC004C08AA0021002C083C
:1016C0009F3146278A3120002B082100BC002000D2
:1016D0002A082100BB003B08B2073C08B33D00309C
:1016E000B43DB53D28082000CC004C08AA002100DC
:1016F0002D089F3146278A3120002B082100BC008D
:1017000020002A082100BB003B08B2073C08B33D7B
:101710000030B43DB53D0830B235B30DB40DB50D54
:10172000890B8C2B28082000CC004C08AA00210033
:101730002C089F3146278A3120002B082100BC004D
:1017400020002A082100BB003B08B2073C08B33D3B
:101750000030B43DB53D29082000CC004C08AA005B
:1017600021002E089F3146278A3120002B082100B6
:10177000BC0020002A082100BB003B08B7073C083A
:10178000B83D0030B93DBA3D2A082000CC004C08D5
:10179000AA0021002D089F3146278A3120002B08FE
:1017A0002100BC0020002A082100BB003B08B7072D
:1017B0003C08B83D0030B93DBA3D2A082000CC00B5
:1017C0004C08AA0021002E089F3146278A312000AC
:1017D0002B082100BC0020002A082100BB003B0888
:1017E0002000CC0021003C082000CD00CE01CF011C
:1017F0000830CC35CD0DCE0DCF0D890BF92B4C0813
:101800002100B70720004D082100B83D20004E08F8
:101810002100B93D20004F082100BA3D32082000C8
:10182000CC00210033082000CD0021003408200026
:10183000CE00210035082000CF001830CF36CE0C66
:10184000CD0CCC0C890B1E2C4C082100B7072000B6
:101850004D082100B83D20004E082100B93D200070
:101860004F082100BA3D0830B235B30DB40DB50DA7
:10187000890B342C360831072000CC00CD01CD0D6A
:101880004C08823E2100BB00FF3020004D3D21006E
:10189000BC00B91B602C0130B735B80DB90DBA0DBD
:1018A000890B4C2CB51B37140130B235B30DB40D78
:1018B000B50D890B552CFF30BB07FF30BC3D492CC3
:1018C000B101B51F822CFF3032052000CC00FF3063
:1018D000210033052000CD00FF3021003405200019
:1018E000CE007F30210035052000CF004F084E0488
:1018F0004D044C04031D7F2C2100371C822C210039
:10190000B101B10A31080319B92C0130B707003011
:10191000B83D0030B93D0030BA3D3A1CB92C37080B
:101920002000CC00210038082000CD00210039081B
:101930002000CE0021003A082000CF000130D00066
:10194000CF37CE0CCD0CCC0CD00BA02C4F082100E7
:10195000BA0020004E082100B90020004D082100E7
:10196000B80020004C082100B7000130BB07003050
:10197000BC3D3C08803A2000CC0080304C02031D66
:10198000C42CFF3021003B02031CD02C7F302100EF
:10199000BA008030B9000030B8000030B700002D28
:1019A00021003C08803A2000CC0080304C02031D0E
:1019B000DC2C013021003B020318E92C003021000F
:1019C000BA000030B9000030B8000030B700B001F4
:1019D000002D21003B082000CC004C082100B6005F
:1019E000FF30B705FF30B8057F30B9050030BA05C4
:1019F0003618B91736362000CC004C082100BA0042
:101A000030082000CC004C082100BA043A08AB0092
:101A10003908AA003808A9003708A80008000030D3
:101A20002300EB000030EA000030E9000030E8005D
:101A3000D201D301D8308600013087001030210058
:101A4000EE0000301E00EE0B222D9E314E268D3111
:101A50001A302100EE00F830890B2C2DEE0B2C2DC6
:101A60000000E0302000AA001F30AB009F310627A5
:101A70008D3120002B082300D90020002A082300E4
:101A8000D800E1302000AA001F30AB009F310627AC
:101A90008D3120002B082300DB0020002A082300C2
:101AA000DA00E2302000AA001F30AB009F31062789
:101AB0008D3120002B082300DD0020002A082300A0
:101AC000DC00E3302000AA001F30AB009F31062766
:101AD0008D3120002B082300DF0020002A0823007E
:101AE000DE00580A3F300319590603197C2D3430A3
:101AF00059065804031D7E2DD801D9015C0A3F30D8
:101B000003195D060319892D34305D065C04031D3D
:101B10008D2D9030DC000130DD005A0A3F30031972
:101B20005B060319982D34305B065A04031D9C2D67
:101B30008430DA000330DB005E0A3F3003195F06B1
:101B40000319A72D34305F065E04031DAB2D08304A
:101B5000DE000730DF0001309E310F268D311A3054
:101B60002100EE00F830890BB32DEE0BB32D0000F1
:101B70008B170B17640080309231E5228D312100E4
:101B800040082300EB0021003F082300EA00210069
:101B90003E082300E90021003D082300E800A030B2
:101BA0009231E5228D31210040082300D700210029
:101BB0003F082300D60021003E082300D500210065
:101BC0003D082300D400031022000E1F0314031C41
:101BD000EC2D22000E17EE2D22000E1323005708C5
:101BE0002100E600230056082100E50023005508E7
:101BF0002100E400230054082100E30096316E2602
:101C00008D31743023002806253003192906031D61
:101C1000132E5108031D132E0030A9000130A80017
:101C2000D101D10A962E193028061230031929063F
:101C3000031D3D2E5103031D3D2EA801A9018B1349
:101C40000B13E0302000AD001F30AE00D830210073
:101C5000EE006E082000AF0092317E228D3182307E
:101C60002100EE00DD30890B332EEE0B332E0032D7
:101C70008B170B172300D101962E0030A9000130DD
:101C8000A80051030319832E902E2D08D9002C088B
:101C9000D8006B082100DA0023006A082100D9006F
:101CA000230069082100D800230068082100D7001C
:101CB000923118228D31210058082300DB002100C9
:101CC00057082300DA00962E2D08DD002C08DC00D2
:101CD0006B082100DA0023006A082100D9002300E4
:101CE00069082100D800230068082100D70092313C
:101CF00018228D31210058082300DF0021005708E9
:101D00002300DE00962E2B08003A0319882E962E0B
:101D10002A08013A0319452E033A0319642E962E18
:101D2000A801A901AA01AB01AC01AD015108031D35
:101D3000FD2F6B082000BB0023006A082000BA00BA
:101D4000230069082000B900230068082000B800BB
:101D500023005A082000AA0023005B082000AB00E3
:101D6000AC01AD01003088310D208D3120002D08EF
:101D7000BF002C08BE002B08BD002A08BC00933110
:101D800060238D31031C332F23005E082000AA003E
:101D900023005F082000AB00AC01AD0100308831AA
:101DA0000D208D3120002D08BB002C08BA002B0817
:101DB000B9002A08B80023006B082000BF002300E8
:101DC0006A082000BE00230069082000BD0023002F
:101DD00068082000BC00933160238D31031C332F31
:101DE00023006B082200A30023006A082200A2003F
:101DF000230069082200A100230068082200A00037
:101E000023005A082200A40023005B082200A5003A
:101E1000A601A70123005E082200A80023005F0896
:101E20002200A900AA01AB01230058082200AC003F
:101E3000230059082200AD00AE01AF0123005C0869
:101E40002200B00023005D082200B100B201B301FE
:101E50009331DC238D31220021082300D30022009E
:101E600020082300942F23006B082000BB002300D0
:101E70006A082000BA00230069082000B900230086
:101E800068082000B80023005A082000AA00230098
:101E90005B082000AB00AC01AD01003088310D20A3
:101EA0008D3120002D08BF002C08BE002B08BD007E
:101EB0002A08BC00933160238D310318642F23005E
:101EC0005908D3005808942F23005E082000AA0068
:101ED00023005F082000AB00AC01AD010030883169
:101EE0000D208D3120002D08BB002C08BA002B08D6
:101EF000B9002A08B80023006B082000BF002300A7
:101F00006A082000BE00230069082000BD002300ED
:101F100068082000BC00933160238D310318952F91
:101F200023005D08D3005C08D20023005308A10001
:101F30005208A0006B082100DA0023006A08210083
:101F4000D900230069082100D80023006808210077
:101F5000D700923118228D31210058082300A300A8
:101F6000210057082300A20050082100AF002300E1
:101F70004F082100AE0023004E082100AD002300D1
:101F80004D082100AC004230AB00C830AA00003040
:101F9000A9000030A8008A3141228D3121002B0890
:101FA000DA002A08D9002908D8002808D700923179
:101FB00018228D31210058082300A5002100570860
:101FC0002300A40057082100DA002300560821004E
:101FD000D900230055082100D8002300540821000F
:101FE000D700923118228D31210058082300A70014
:101FF000210057082300A600BA2DA001A1019A2FA5
:102000000530080001302000AA000030AB00330882
:102010009E312426903100302000AF00B000B10185
:102020009D319E25043008009C318A249031240083
:102030003C1C26289C31E9249031003A03192628BB
:102040000F302000B70037082400BA0024003A08F7
:102050002000B700B801B735B80D0030370784004D
:102060009830383D8500013F8A00003F0A009031DA
:102070002000B90039082400BA00080020009601A9
:10208000E03097001110230019082000A900230058
:102090004708B03E860001308700200029088100F3
:1020A0000130A90029082300C70707304706031D90
:1020B000642810303106031D64283608013E2000D4
:1020C000A90029082300C90747084906031D08007D
:1020D0008831A32008002400BC1578289C31B52441
:1020E00008009C31A224033008009C31B924080068
:1020F0002C082000B4003408B300240021088A0012
:1021000020080A0090312000B500B6013608003AD8
:1021100003198B2875283508013A03197528033AE5
:1021200003196E28013A03196E28073A031971281A
:102130007528080024003C1002302000B400340848
:102140002400BB00A9289C31B52408009C31B92487
:1021500008002E082000B4003408B3000430203EEC
:10216000860002308700413F8A00403F0A009031DC
:102170002000B500B6013608003A0319C028A62889
:102180003508023A0319A328013A0319A328A628FF
:10219000080080302100A30627082000BB00210092
:1021A00026082000BA00210025082000B9002100DF
:1021B00024082000B800210023082000BF002100CF
:1021C00022082000BE00210021082000BD002100BF
:1021D00020082000BC008531F92520003B082100A3
:1021E000A30020003A082100A200200039082100A5
:1021F000A100200038082100A00008002000AB004A
:10220000AC01AC0A24003C19392920002B08AA0093
:102210002A082400B600BC103C153C100E302000EB
:10222000AA002A082400BA00F430B4000130B50036
:10223000BC158830A0001C30A100AC018830A20081
:102240001C30A300AD018830A4001C30A500AE01F5
:102250008830A6001C30A700AF010030A800103065
:10226000A900B0019C318A2490319D319225200033
:10227000AC0120002C080800210091123E30200003
:10228000AA001030AB009D313E2591312100111282
:102290008E302000AA001F30AB009D3147259131C0
:1022A000083023009F0090309D0024309E00CF30E6
:1022B0009B009C0100302000AA000030AB009D3143
:1022C0002C25913100302000AA000030AB009D3158
:1022D0003525913100302000AA000030AB009D313F
:1022E00023252000D801DB01DA014030AC002C08A6
:1022F000E300D901FD01FC012100911608009C3189
:102300009F2491312000B400240037088600870103
:102310002000340881000130B40034082400B707DD
:102320000130B8020030B93B3808390403199C2940
:102330009C31A92405300800BC15A4299C31C52472
:1023400008009C31C12408002C082000B400340887
:10235000B300240021088A0020080A0091312000DF
:10236000B500B6013608003A0319B729A129350886
:10237000013A0319A129033A03199E29013A0319C5
:102380009E29073A0319A129A12908009C31E924B3
:102390009131003A031DD629FC299C31AD24080057
:1023A0009C31B12408009C31B924080024002F0876
:1023B0002000B4003408B3000630203E860002300E
:1023C0008700413F8A00403F0A0091312000B5005C
:1023D000B6013608003A0319EE29D3293508013A27
:1023E0000319D329033A0319CD29013A0319D02936
:1023F000073A0319D329D32924003C101730203E73
:10240000860002308700403F84008501810A000871
:102410009C31E324913101302400B8020030B93BF3
:1024200038083904031D162A063008000330080056
:1024300003102100590D5A0DDB005B08E100610813
:10244000031D2B2A0030DA000030D9000030D800FC
:102450000030D70008005708DB005808DC00590896
:10246000DD005A08DE001F30DE36DD0CDC0CDB0C34
:10247000890B342A5B08DF005F08E000D917FF30C2
:10248000D705FF30D805FF30D9050030DA05963082
:10249000E102E11F5E2A6108803A973E031C222A6E
:1024A0000130DA36D90CD80CD70C890B512A0130FF
:1024B000DB005B08E10703196F2A502A2030610214
:1024C0000318222A610803196F2A0130D735D80D65
:1024D000D90DDA0D890B662A0130E102622A600803
:1024E00003190800D709D809D909DA09D70A031945
:1024F000D80A0319D90A0319DA0A0800E0302000C3
:102500002D05B3001F302E05B40000308B1B0130A9
:10251000B50034082E06031D8F2A33082D06031D2F
:1025200008008B132E08AB002D08AA009F31262728
:10253000923123001513151595162000B6012D08AC
:102540002300910020002E08230092002000363541
:102550002F07B000300886000130870001082300F3
:102560009300200036352F07B00030088600013078
:102570008700403FB100413FB20032082300940081
:102580001F3020003606031DC72A23009512553040
:1025900023009600AA309600951400000000013038
:1025A0002000AD070030AE3D0130B0003008B60766
:1025B00020303602031C9F2A230015112000350C01
:1025C000031C8B1303188B1708002100C500003073
:1025D000C6000030C7000030C80045081C389D31D7
:1025E000AB25923105302100C2004330C100E330F9
:1025F000890BF82AC10BF82AC20BF82A00320330E3
:102600002100C10041082000C100C6309D31C8250D
:10261000923121004608C100C201C301C40144082F
:10262000CC004308CB004208CA004108C90008306A
:10263000C935CA0DCB0DCC0D890B182B4708C90421
:102640000830C935CA0DCB0DCC0D890B212B48089C
:10265000C9043C30AB008030AA000030A900003033
:10266000A8004C082000AD0021004B082000AC0061
:1026700021004A082000AB00210049082000AA00E0
:10268000003088310D20923120002D082100AF004C
:1026900020002C082100AE0020002B082100AD00F6
:1026A00020002A082100AC008A31412221002B0899
:1026B000C0002A08BF002908BE002808BD00080085
:1026C000003020003805C00000303905C1008030DE
:1026D0003A05C2007F303B05C30043084204410471
:1026E0004004031D7B2B0030BB000030BA000030DB
:1026F000B9000030B80000303C05C00000303D0596
:10270000C10080303E05C2007F303F05C300430852
:10271000420441044004031D952B0030BF000030EB
:10272000BE000030BD000030BC00BB1FAF2B00302E
:10273000C0000030C1000030C2008030C300380843
:10274000C0023908C13B3A08C23B3B08C33B4308BF
:10275000BB004208BA004108B9004008B800BF1FDA
:10276000C92B0030C0000030C1000030C2008030F2
:10277000C3003C08C0023D08C13B3E08C23B3F08C5
:10278000C33B4308BF004208BE004108BD004008EB
:10279000BC008030BB068030BF063F083B02031DF3
:1027A00008003E083A02031D08003D083902031DD7
:1027B00008003C0838020800220023082100A70076
:1027C000220022082100A600220021082100A500E5
:1027D000220020082100A400220027082000AD00CC
:1027E000220026082000AC00220025082000AB00B3
:1027F000220024082000AA00013088310D209331E6
:1028000020002D082100A30020002C082100A20098
:1028100020002B082100A10020002A082100A00090
:102820009031C920933121002308AF002208AE0067
:102830002108AD002008AC0022002C083002210045
:10284000E20022002D08313B2100E30022002E0887
:10285000323B2100E40022002F08333B2100E50039
:1028600065082000AD00210064082000AC002100B4
:1028700063082000AB00210062082000AA0001309C
:1028800088310D20933120002D082100AB0020005D
:102890002C082100AA0020002B082100A9002000FC
:1028A0002A082100A8008A314122933121002B08F7
:1028B000C4002A08C3002908C2002808C100220059
:1028C000240828022100E60022002508293B2100D7
:1028D000E700220026082A3B2100E8002200270802
:1028E0002B3B2100E90069082000AD0021006808A9
:1028F0002000AC00210067082000AB002100660822
:102900002000AA00013088310D20933120002D08CD
:102910002100C00020002C082100BF0020002B084F
:102920002100BE0020002A082100BD009431F424BB
:10293000933121004008ED003F08EC003E08EB0019
:102940003D08EA006D082000BF0021006C0820004F
:10295000BE0021006B082000BD0021006A08200095
:10296000BC0022002F082000AD0022002E0820000D
:10297000AC0022002D082000AB0022002C08200013
:10298000AA00013088310D20933120002D08BB00B2
:102990002C08BA002B08B9002A08B8008531F9259F
:1029A000933120003B082100DA0020003A08210082
:1029B000D900200039082100D80020003808210063
:1029C000D7009231182221005A082200A3002100CA
:1029D00059082200A200210058082200A10021006D
:1029E00057082200A0000800210044088039C500D3
:1029F0004508CE004435C5004508D500C31B551415
:102A000055080319112D550A031D0E2D0030C40061
:102A10000030C3000030C2000030C100C317C40141
:102A2000192D0030C4000030C3000030C200003057
:102A3000C10040088039C5004508CE064035C500B4
:102A40004508D600BF1B561456080319352D560AE3
:102A5000031D322D0030C0000030BF000030BE002A
:102A60000030BD00BF17C0013D2D0030C000003058
:102A7000BF000030BE000030BD0040083F043E04EF
:102A80003D04031D5C2D0030C4000030C300003045
:102A9000C2000030C1008030C3047F30C4044E083F
:102AA000C5004508C4044408C0004308BF004208EC
:102AB000BE004108BD0008005508031D682D003008
:102AC000C0000030BF000030BE000030BD00080074
:102AD0005508C500C6014608C80056084502C7008B
:102AE000031CC80347087F3ECF000030483DD0009C
:102AF0004408CD004308CC004208CB004108CA007E
:102B00000030C4000030C3000030C2000030C100FB
:102B10000030D4000030D3000030D2000030D100AB
:102B2000D6011A3056020318CD2D56080319AF2DC1
:102B30000130CA35CB0DCC0DCD0D890B992D01304F
:102B4000C135C20DC30DC40D890BA02DD41B41147A
:102B50000130D135D20DD30DD40D890BA92D4008EC
:102B60004D02031DBD2D3F084C02031DBD2D3E0827
:102B70004B02031DBD2D3D084A02031CC82D5417EE
:102B80003D08CA023E08CB3B3F08CC3B4008CD3B4A
:102B90000130C5004508D607912D4D084C044B0463
:102BA0004A04031D5114C31BEA2D0130C135C20D67
:102BB000C30DC40D890BD62DD41B41140130D13562
:102BC000D20DD30DD40D890BDF2DFF30CF07FF3091
:102BD000D03DD32DD601D41F032EFF305105C500A3
:102BE000FF305205C600FF305305C7007F30540543
:102BF000C800480847044604450403194118012E3B
:102C0000032ED601D60A560803192C2E0130C1070F
:102C10000030C23D0030C33D0030C43D441C2C2E6A
:102C20004108C5004208C6004308C7004408C80060
:102C30000130C900C837C70CC60CC50CC90B1A2E09
:102C40004808C4004708C3004608C2004508C10040
:102C50000130CF070030D03D5008803AC5008030A9
:102C60004502031D352EFF304F02031C442EFF305A
:102C70002100CF000030D0000030C4000030C3007D
:102C80000030C2000030C10021005008803AC50069
:102C900080304502031D4E2E01304F0203185C2E7A
:102CA0002100CF01D0010030C4000030C30000304B
:102CB000C2000030C100CE0121004F08C500450808
:102CC000D500551C652EC317692E7F30C5004508F9
:102CD000C3055536C5004508C4004F2D44302100BA
:102CE000C0007A30BF000030BE000030BD00660872
:102CF000C4006508C3006408C2006308C1009431C1
:102D0000F424963121004008E6003F08E5003E0823
:102D1000E4003D08E300BF302000BB008030BA0073
:102D20000030B9000030B80021006608C000650816
:102D3000BF006408BE006308BD004030C400A0307E
:102D4000C3000030C2000030C1009431F424963139
:102D5000210040082000BF0021003F082000BE00E5
:102D600021003E082000BD0021003D082000BC00DD
:102D70008531F925963120003B082200E90020002A
:102D80003A082200E800200039082200E70020006D
:102D900038082200E60069082100C0002200680807
:102DA0002100BF00220067082100BE002200660843
:102DB0002100BD004730C4000030C300E830C2002D
:102DC0000030C1009431F4249631210040082200E3
:102DD000E50021003F082200E40021003E08220017
:102DE000E30021003D082200E20046302100C0003F
:102DF0001C30BF004030BE000030BD00220065081E
:102E00002100C400220064082100C30022006308DE
:102E10002100C200220062082100C1009431F42484
:102E20009631210040082200ED0021003F082200D9
:102E3000EC0021003E082200EB0021003D082200AA
:102E4000EA006D082100DA0022006C082100D90098
:102E500022006B082100D80022006A082100D70058
:102E600080316520963121005A082200ED002100B2
:102E700059082200EC00210058082200EB00210034
:102E800057082200EA0045302100C0007630BF001C
:102E9000E030BE000030BD0022006D082100C400FB
:102EA00022006C082100C30022006B082100C20030
:102EB00022006A082100C1009431F42496312100D7
:102EC00040082200ED0021003F082200EC00210014
:102ED0003E082200EB0021003D082200EA003B30C2
:102EE0002000BB005B30BA00CF30B9000F30B80013
:102EF00022006D082000BF0022006C082000BE00E8
:102F000022006B082000BD0022006A082000BC00DF
:102F10008531F925963120003B082200ED00200084
:102F20003A082200EC00200039082200EB002000C3
:102F300038082200EA006D082100C00022006C0859
:102F40002100BF0022006B082100BE0022006A0899
:102F50002100BD003F30C4008030C3000030C200FB
:102F60000030C1009431F424963121004008220041
:102F7000ED0021003F082200EC0021003E08220065
:102F8000EB0021003D082200EA0043302100A300AD
:102F90008830A2009330A1003330A00022006D08D9
:102FA0002100A70022006C082100A60022006B0867
:102FB0002100A50022006A082100A4009031C92048
:102FC000210023082200ED00210022082200EC004D
:102FD000210021082200EB00210020082200EA0045
:102FE0006D082300D00022006C082300CF002200CF
:102FF0006B082300CE0022006A082300CD000800E1
:10300000D9341C341B341D3414341D34C6341134EB
:103010007F341134EF341C346B341034AD341C3431
:10302000B1341C34B5341C34B9341C34BD341C34B4
:10303000C1341C34C5341C34DE341C349A3410348E
:1030400026349E3478343E34EE34E93491343E34C0
:103050001334CE34CC343E34AA34AA342A343F3428
:10306000D134F734173437348034713431343F3449
:10390E0008000130080020009111080024009512D3
:10391E00080021009111080024001614080024004C
:10392E0096140800240016150800240096150800A9
:10393E002400110808002000911508002400961696
:10394E001616080024009612161608009C319624AE
:10395E00013008009C319624023008009C319624D8
:10396E00013008009C319924003008009C31A924B4
:10397E00053008009C31A5240A3008009C31A5248E
:10398E0009300800200091190800C92C01309E3121
:10399E00E826080000309E31E82608001A30210083
:1039AE00970008002400BC10BB010E300800240054
:1039BE00BC10BB010E3008002000AA002A0824000B
:1039CE00910008002400160E890C890C013908009C
:1039DE0024003C109C319C240430080070302100DF
:1039EE00990022009601080020002B08DD002A080D
:1039FE00DC00080020002B08DF002A08DE0008008B
:103A0E00640080010131890B082D00340B11200058
:103A1E00620895009D316425080024003C1436355B
:103A2E009C31E3240330080024003C140314360DAB
:103A3E009C31E3240530080020002B082400DE0012
:103A4E0020002A082400DD00080020002B08240096
:103A5E00E20020002A082400E100080020002B08C4
:103A6E002400E00020002A082400DF0008002000C7
:103A7E002B082300ED0020002A082300EC0008008C
:103A8E0020002B082300EF0020002A082300EE0060
:103A9E0008002400BC1C08009C31C9249D319031C3
:103AAE0014209D31502D8030240094000830950054
:103ABE009601133092009512080020005C085D04F8
:103ACE00031908005D088A005C080A009D31080091
:103ADE0020005E085F04031908005F088A005E0874
:103AEE000A009D31080020009601E0309700111069
:103AFE002300C7010830F0007008C900080020003C
:103B0E0011106108F1006008F0009D31B9259D315A
:103B1E009D316F2508002400951A0800803094000E
:103B2E00083095009601133092009516080020007B
:103B3E003008AB002F08AA003108B2003208AC00E2
:103B4E0000309F31B72708002000C2004230C1006C
:103B5E004108BD000130BE000030BF006830873123
:103B6E00DB2708002000181DC32D181071089700C0
:103B7E0070089600181408007108970070089600D7
:103B8E0008002000C5004508C2004208BD004108DB
:103B9E00C300C4014308BE004408BF0068309E3114
:103BAE00AD26080002302000AA000030AB0033081A
:103BBE009E3124269D3100302000AF00B000B101AF
:103BCE009D319E250430080001302000AA000030EF
:103BDE00AB0033089E3124269D3100302000AF000B
:103BEE00B000B1019D319E25023008000230200048
:103BFE00AA000030AB0033089E3124269D310030E0
:103C0E002000AF00B000B1019D319E2502300800AA
:103C1E002000AB002300CA01CB0120002B08AA0014
:103C2E002A082300CC00C70108302000AA002A0869
:103C3E002300C90022008E1308002000AD002400CE
:103C4E00BC1D080020002D08AC002C082400B70075
:103C5E0020002B082400B90020002A082400B800F8
:103C6E00BC11080021001508C03917389500F8302E
:103C7E0020009500F830AC002C08E2000B118B16DA
:103C8E008730AA001C30AB009C31FB2408009D310C
:103C9E005A259E319E3194269E319C31F5249E31BB
:103CAE009C31D5249E319E3163269E319E3139261C
:103CBE009E3191313C21080020009901B1309700CE
:103CCE00E030960011101708E1001608E000210000
:103CDE0011147A302000AA001D30AB009D31012551
:103CEE00013020009800080020003308860087016C
:103CFE00403FAA00413FAB003308023E86008701D9
:103D0E0001089E3124269E3100302000AF00B00005
:103D1E00B1019D319E250230080022008C018D01DB
:103D2E008E013F3021008C0070308D003F308E00B0
:103D3E000F3023008E008D0117308C0024008D0172
:103D4E008C012100951722009D0108002000C00063
:103D5E00200040089031FE209E31003A0319AF2E0C
:103D6E0020003F08AB003E08AA003D089E312426E5
:103D7E009E319C31CD249E319E31CA269E31013A10
:103D8E00031D0800C32E2000AB01AB0A2400BC1893
:103D9E00E52E3C11FF302000AA002A082400B600B0
:103DAE009C318A249E319C3190249E319C318D24ED
:103DBE0024003B082000AA002A08AB0020002B0894
:103DCE0008002000BB00BC01BC0A2400BC18032F55
:103DDE00BC142000BC013B080319F92E2400BA01C3
:103DEE00BA0AFE2E0230BA003A082400BA009C31FC
:103DFE0093249E319D31502520003C080800003050
:103E0E008B1B01302000AC008B132A08230091007D
:103E1E0020002B082300920015131514000000003B
:103E2E0020002C0C031C8B1303188B172300140873
:103E3E002000AB00230013082000AA000800003069
:103E4E008B1B01302000AC008B132A08230091003D
:103E5E0020002B082300920015131516151555304A
:103E6E009600AA309600951400000000230015114C
:103E7E0020002C0C031C8B1303188B17080020003A
:103E8E00B200AE01AF012A08AC00AD012C08B000A3
:103E9E002D08B100321C572F3008AE073108AF3D48
:103EAE000130B035B10D890B582F0310B20C32080A
:103EBE00031D512F2F08AB002E08AA000800F20098
:103ECE007208F000F10170082000E4067108E506A2
:103EDE00F501F301F401641C782F0130F30000307A
:103EEE00F4000130E536E40C890B792F7308740465
:103EFE000319852F0130E406A030E5060130F000ED
:103F0E007008F5070830750203180800702F20009E
:103F1E009601E0309700111023004808460203185E
:103F2E00A32F4608B03E86000130870001089A0094
:103F3E000130F0007008C60746084806031D080049
:103F4E009E1CA72F2100111223009E12C7010830BC
:103F5E00F0007008C90022008E132000181408000B
:103F6E002000AE002A082B040319D02F2E35203E38
:103F7E008600023087002A08C03F2B08C13F2C085C
:103F8E00AD002E082C3E8600023087002D088100E1
:103F9E0008002E35203E8600023087008830C03F54
:103FAE001C30C13F2E082C3E860002308700810156
:103FBE00080000340034003400340034003400347F
:103FCE000034003400340034003400340034003443
:103FDE000034003400340034003400340034003433
:103FEE000034003400340034003400340034003423
:103FFE000034003400340034003400340034003413
:10400E000034003400340034003400340034003402
:10401E0000340034003400340034003400340034F2
:10402E0000340034003400340034003400340034E2
:02403E0000344C
:020000040001F9
:08000000FF3FFF3FFF3FFF3F00
:04000E00FA3FFF3F77
:00000001FF
