:1000000080313228FF34FF347E1480318B1A0B1D6F
:100010000D289D31C625803130280B1F3028210046
:10002000111E1B282000111E1B2865088A00640869
:100030000A00803130282100911E28282000911EBE
:10004000282823006F088A006E080A0080313028B3
:100050002100111C30282000111C30289E312E2632
:100060007E10090080313428803102208031FA006E
:10007000803103208031FB00513084000030850046
:100080000D309D31C02580312200EE01EF01A030FE
:1000900084000130850032309D31C0258031203010
:1000A0008400023085004D309D31C0258031A03064
:1000B00084000230850040309D31C0257E10200034
:1000C0008D31232D200054082200D9002000530830
:1000D0002200D800200052082200D700200051083A
:1000E0002200D60021005A082200D9002100590818
:1000F0002200D800210058082200D700210057080C
:100100002200D6005908E1005808E0005708DF0037
:100110005608DE00BC01BD016108031D9328803034
:100120006002031CAD2822005E082100DB002200D3
:100130005F082100DC00220060082100DD002200B1
:1001400061082100DE001F30DE36DD0CDC0CDB0C2C
:10015000890BA4285B0803197F2922005E0821006F
:10016000DB0022005F082100DC0022006008210083
:10017000DD00220061082100DE000130DB35DC0DEE
:10018000DD0DDE0D890BBE285E085D045C045B049A
:10019000031DF8285A08AB005908AA005808A900FE
:1001A0005708A8005A08AF005908AE005808AD001B
:1001B0005708AC008A316F2280312B08C0002A0812
:1001C000BF002908BE002808BD00BF30C400803031
:1001D000C3000030C2000030C1009531082540083E
:1001E000DA003F08D9003E08D8003D08D7000800D3
:1001F00022005E082100DB0022005F082100DC00F5
:10020000220060082100DD00220061082100DE00DC
:100210001F30DE36DD0CDC0CDB0C890B09295B089A
:100220000319462921302200EE000030EF00003093
:100230002100C0000030BF000030BE000030BD0013
:100240005A08A3005908A2005808A1005708A000A6
:100250005A08A7005908A6005808A5005708A40086
:100260009131862180312308C4002208C30021086F
:10027000C2002008C100953108254008DA003F0877
:10028000D9003E08D8003D08D7000800E73022001A
:10029000BC07FF30BD3D4C302100AB000030AA0050
:1002A0000030A9000030A8005A08AF005908AE007D
:1002B0005808AD005708AC008A316F2280312B08F6
:1002C000DA002A08D9002908D8002808D7005A08D7
:1002D0002200D900210059082200D8002100580826
:1002E0002200D700210057082200D6005908E1005B
:1002F0005808E0005708DF005608DE009A298030D1
:10030000220060027F30613B031808008030220029
:1003100060063F30031961065E045F04031D9A29DD
:1003200000302100DA000030D9000030D800003061
:10033000D70008000D302200DE07FB30DF3D4A30D9
:10034000E03D0030E13D5E082100DB0022005F0857
:100350002100DC00220060082100DD00220061088D
:100360002100DE001730DE36DD0CDC0CDB0C890BE7
:10037000B3295B08813EDF00FF305C3DE0005F0891
:100380002200BC07210060082200BD3DF33021009F
:10039000DB000430DC003530DD003F30DE00FF30B4
:1003A00022005E052100DF00FF3022005F052100F2
:1003B000E0007F30220060052100E10000302200D3
:1003C00061052100E2005F08DB076008DC3D610891
:1003D000DD3D6208DE3D5E082200E10021005D088F
:1003E0002200E00021005C082200DF0021005B0801
:1003F0002200DE006108D9006008D8005F08D7003D
:100400005E08D60059082100DA00220058082100B1
:10041000D900220057082100D800220056082100E8
:10042000D700BF302000BA008030B9000030B800DB
:100430000030B70021005A082000BE0021005908F2
:100440002000BD00210058082000BC0021005708F2
:100450002000BB008531D42580313A082200DD0020
:10046000200039082200DC00200038082200DB00D0
:10047000200037082200DA0040302000BA000030A7
:10048000B9000030B8000030B70022005D0820003D
:10049000BE0022005C082000BD0022005B08200096
:1004A000BC0022005A082000BB008531D4258031D1
:1004B0003A082100C000200039082100BF002000B8
:1004C00038082100BE00200037082100BD002200AE
:1004D0005D082100C40022005C082100C300220046
:1004E0005B082100C20022005A082100C10095319A
:1004F0000825803140082200C90021003F08220061
:10050000C80021003E082200C70021003D0822004B
:10051000C60049082100AB00220048082100AA00BB
:10052000220047082100A900220046082100A80057
:10053000220049082100AF00220048082100AE0037
:10054000220047082100AD00220046082100AC002F
:100550008A316F2280312B082200CD0021002A0829
:100560002200CC00210029082200CB00210028080D
:100570002200CA004D082100AB0022004C082100D7
:10058000AA0022004B082100A90022004A082100ED
:10059000A80022004D082100AF0022004C082100D5
:1005A000AE0022004B082100AD0022004A082100C5
:1005B000AC008A316F2280312B082200D10021004B
:1005C0002A082200D000210029082200CF002100A3
:1005D00028082200CE003E302000BA00CC30B900FE
:1005E000CE30B8001330B7003E302100AB00783079
:1005F000AA009E30A9002630A80022005108210040
:10060000AF00220050082100AE0022004F08210058
:10061000AD0022004E082100AC008A316F228031EB
:100620002B082000BE0021002A082000BD00210068
:1006300029082000BC00210028082000BB008531CB
:10064000D42580313A082200D50020003908220044
:10065000D400200038082200D300200037082200F0
:10066000D20051082100AB00220050082100AA004E
:1006700022004F082100A90022004E082100A800F6
:10068000220055082100AF00220054082100AE00CE
:10069000220053082100AD00220052082100AC00C6
:1006A0008A316F2280312B082200A70021002A08FE
:1006B0002200A600210029082200A5002100280808
:1006C0002200A4003F302000BA002A30B900AA302E
:1006D000B800AA30B7003E302100AB009130AA002C
:1006E000E930A900EE30A800220051082100AF0037
:1006F000220050082100AE0022004F082100AD006A
:1007000022004E082100AC008A316F2280312B0874
:100710002000BE0021002A082000BD002100290879
:100720002000BC00210028082000BB008531D42512
:1007300080313A082200D500200039082200D40078
:10074000200038082200D300200037082200D20001
:100750004D082100AB0022004C082100AA00220015
:100760004B082100A90022004A082100A80022000D
:1007700055082100AF00220054082100AE002200DD
:1007800053082100AD00220052082100AC008A313C
:100790006F2280312B082200AB0021002A082200A2
:1007A000AA00210029082200A9002100280822000F
:1007B000A80027082000BA00220026082000B9005F
:1007C000220025082000B800220024082000B700DD
:1007D00022002B082000BE0022002A082000BD00B5
:1007E000220029082000BC00220028082000BB00AD
:1007F0008531D42580313A082200A3002000390831
:100800002200A200200038082200A10020003708A2
:100810002200A0003F302100AB000030AA000030D1
:10082000A9000030A80022005D082100AF002200CE
:100830005C082100AE0022005B082100AD00220010
:100840005A082100AC008A316F2280312B08220027
:10085000D50021002A082200D40021002908220006
:10086000D300210028082200D2005D082100AB003F
:1008700022005C082100AA0022005B082100A900D8
:1008800022005A082100A800220055082100AF00CC
:10089000220054082100AE00220053082100AD00C0
:1008A000220052082100AC008A316F2280312B08CF
:1008B0002200C10021002A082200C00021002908CE
:1008C0002200BF00210028082200BE003C082000B2
:1008D000A90022003D082000AA00890D893B890952
:1008E000AB00AC0001308831522080312C0822004E
:1008F000C50020002B082200C40020002A08220086
:10090000C300200029082200C20049082100AB00D2
:10091000220048082100AA00220047082100A9005F
:10092000220046082100A800220023082000BA0067
:10093000220022082000B900220021082000B8006F
:10094000220020082000B700220041082000BE003D
:10095000220040082000BD0022003F082000BC000B
:1009600022003E082000BB008531D42580313A08A2
:100970002100AF00200039082100AE002000380817
:100980002100AD00200037082100AC008A316F2221
:1009900080312B082200AF0021002A082200AE007F
:1009A000210029082200AD00210028082200AC0007
:1009B00037302100AB001730AA00F730A900D13042
:1009C000A800220045082100AF00220044082100B1
:1009D000AE00220043082100AD00220042082100A1
:1009E000AC008A316F2280312B082000BA00210030
:1009F0002A082000B900210029082000B8002100A1
:100A000028082000B70022002F082000BE00220086
:100A10002E082000BD0022002D082000BC0022006E
:100A20002C082000BB008531D42580313A082200F3
:100A3000B300200039082200B2002000380822004C
:100A4000B100200037082200B00041082100A300B7
:100A5000220040082100A20022003F082100A1003E
:100A600022003E082100A000220033082100A70038
:100A7000220032082100A600220031082100A50032
:100A8000220030082100A400913186218031230802
:100A90002200B700210022082200B6002100210810
:100AA0002200B500210020082200B4005D082000CB
:100AB000BA0022005C082000B90022005B08200078
:100AC000B80022005A082000B70022003708200092
:100AD000BE00220036082000BD002200350820009C
:100AE000BC00220034082000BB008531D4258031B1
:100AF0003A082200BB00200039082200BA0020007A
:100B000038082200B900200037082200B8003F3022
:100B10002100AB003130AA007130A9008030A8005C
:100B2000220045082100AF00220044082100AE0049
:100B3000220043082100AD00220042082100AC0041
:100B40008A316F2280312B082000BA0021002A0848
:100B50002000B900210029082000B8002100280841
:100B60002000B70022003B082000BE0022003A0807
:100B70002000BD00220039082000BC0022003808F7
:100B80002000BB008531D4253A082100DA0020007E
:100B900039082100D900200038082100D8002000A1
:100BA00037082100D70008003A088039BF003F0805
:100BB000C7003A35BF003F08C900B91B49144908AE
:100BC0000319F02D490A031DED2D0030BA00003045
:100BD000B9000030B8000030B700B917BA01F82DDD
:100BE0000030BA000030B9000030B8000030B70063
:100BF0003E088039BF003F08C80048084706031D6B
:100C000047173E35BF003F08C800BD1B48144808C1
:100C10000319182E480A031D152E0030BE0000309F
:100C2000BD000030BC000030BB00BD17BE01202E4F
:100C30000030BE000030BD000030BC000030BB0002
:100C4000490848020318662E471F2A2E8030BF002D
:100C50003F08C7064908BF003F08CA004808BF0050
:100C60003F08C9004A08BF003F08C8003708BF0056
:100C70003F08CA003B08BF003F08B7004A08BF0052
:100C80003F08BB003808BF003F08CA003C08BF004F
:100C90003F08B8004A08BF003F08BC003908BF0041
:100CA0003F08CA003D08BF003F08B9004A08BF001E
:100CB0003F08BD003A08BF003F08CA003E08BF0019
:100CC0003F08BA004A08BF003F08BE00CA014808F2
:100CD000BF00C0014008C20049083F02C100031C18
:100CE000C2034208803AC30080304302031D7A2EBB
:100CF0001A304102031CAE2E20003A083904380491
:100D000037040319852E0130862E0030BF003F08BE
:100D1000CA000030BA000030B9000030B80000301E
:100D2000B7004808BF003F08C900B32E4A1C9E2EDA
:100D30004A360138BF003F08CA00A02E0310CA0C73
:100D40003718CA170130BF00BA37B90CB80CB70C46
:100D5000BF0BA42E0130BF003F08C9072000480880
:100D60004902031C962E471BE42E4908031DC12E81
:100D70000030BA000030B9000030B8000030B700D1
:100D800008003B08B7073C08B83D3D08B93D3E08A0
:100D9000BA3D3A1C5E2F4A1CD32E4A360138BF009A
:100DA0003F08CA00D52E0310CA0C3718CA170130E5
:100DB000BF00BA37B90CB80CB70CBF0BD92E013035
:100DC000BF003F08C9075E2F3A08803ABF003E08BF
:100DD000803A3F02031DF62E3D083902031DF62E10
:100DE0003C083802031DF62E3B08370203182E2F4D
:100DF000FF30BF00FF30C000FF30C100FF30C20035
:100E000037083B02C30038083C3BC40039083D3B6F
:100E1000C5003A083E3BC6004308BF074408C03D32
:100E20004508C13D4608C23D4208BA004108B90024
:100E30004008B8003F08B7008030BF003F08C70631
:100E4000CA09CA0A4A08031D362F0130B707003005
:100E5000B83D0030B93D0030BA3D362F3B08B702EF
:100E60003C08B83B3D08B93B3E08BA3B3A08390458
:100E700038043704031D5C2F4A08031D5C2F003023
:100E8000BA000030B9000030B8000030B7000800E8
:100E90000130B735B80DB90DBA0D890B492FCA1BF2
:100EA00037144A1C552F0314562F0310CA0D490836
:100EB00003195C2F0130C902B91F482FC801CA1F8E
:100EC000692F4A087F3903193718672F692FC8011E
:100ED000C80A48080319952F0130B7070030B83DFC
:100EE0000030B93D0030BA3D3A1C952F3708BF009D
:100EF0003808C0003908C1003A08C2000130C300F8
:100F0000C237C10CC00CBF0CC30B802F4208BA0003
:100F10004108B9004008B8003F08B700490A031962
:100F2000952F0130BF003F08C907490A031D490832
:100F3000031DA52F0030BA000030B9000030B80002
:100F40000030B70049080319C701491CA92FB91778
:100F5000AD2F7F30BF003F08B9054936BF003F08BD
:100F6000BA00C71F0800BA1708008831002087316F
:100F70002000B300240037088600870120003308D2
:100F800081000130B30033082400B7070130B802F4
:100F90000030B93B380839040319D22F9D3162253E
:100FA00005300800BC15DA2F9D317E2508009D31E3
:100FB0007A2508002C082000B3003308B200240072
:100FC00021088A0020080A0087312000B400B501FA
:100FD0003508003A0319ED2FD72F3408013A0319C9
:100FE000D72F033A0319D42F013A0319D42F073A04
:100FF0000319D72FD72F08001A30210097000800B7
:101000002400110808009D31AE258831003A031DE7
:10101000132838289D31662508009D316A2508006F
:101020009D31722508002F082000B3003308B2005C
:101030000630203E860002308700413F8A00403F54
:101040000A0088312000B400B5013508003A0319C0
:101050002A2810283408013A03191028033A0319E2
:101060000A28013A03190D28073A031910281028F5
:101070003C101730203E860002308700403F84003D
:101080008501810A00089D31A82588310130B80208
:101090000030B93B38083904031D502806300800D9
:1010A00003300800B1003108031DAC1F672829096F
:1010B000B3002A09B4002B09B5002C09B600B30A05
:1010C0000319B40A0319B50A0319B60A6F282C08C4
:1010D000B6002B08B5002A08B4002908B3002C0874
:1010E0002B042A042904031D7E280030AC000030A4
:1010F000AB000030AA000030A90008009630AD0017
:101100002D08B200FE3036050319A5280130AD00C8
:101110002D08B2070130B636B50CB40CB30C890BF0
:101120008B2882280130AD002D08B2070130B307AB
:101130000030B43D0030B53D0030B63D0130B6362C
:10114000B50CB40CB30C890B9F28FF30360503197E
:10115000B728922802303202031CB9280130B202AB
:101160000130B335B40DB50DB60D890BB128B51FDF
:10117000AA283218C328FF30B305FF30B4057F30EA
:10118000B505FF30B6050310B20C3208AD00AE0154
:10119000AF01B0011830AD35AE0DAF0DB00D890BFC
:1011A000CB282D08B3042E08B4042F08B50430084A
:1011B000B6043108031DAC1FDE28B6173608AC0094
:1011C0003508AB003408AA003308A90008004430F1
:1011D000C0007A30BF000030BE000030BD0066089D
:1011E000C4006508C3006408C2006308C1009531EB
:1011F000082588314008E6003F08E5003E08E40085
:101200003D08E300BF302000BA008030B900003054
:10121000B8000030B70021006608C0006508BF00B4
:101220006408BE006308BD004030C400A030C300A5
:101230000030C2000030C1009531082588314008D7
:101240002000BE0021003F082000BD0021003E0814
:101250002000BC0021003D082000BB008531D425C2
:1012600088313A082200E900200039082200E8000D
:10127000200038082200E700200037082200E6009E
:1012800069082100C000220068082100BF00220078
:1012900067082100BE00220066082100BD0047301B
:1012A000C4000030C300E830C2000030C1009531F6
:1012B0000825883140082200E50021003F0822006F
:1012C000E40021003E082200E30021003D08220046
:1012D000E20046302100C0001C30BF004030BE009C
:1012E0000030BD00220065082100C400220064080F
:1012F0002100C300220063082100C200220062080E
:101300002100C10095310825883140082200ED00F8
:1013100021003F082200EC0021003E082200EB00E3
:1013200021003D082200EA006D082100DA002200B9
:101330006C082100D90022006B082100D80022008F
:101340006A082100D70080316220883121005A08C4
:101350002200ED00210059082200EC00210058086D
:101360002200EB00210057082200EA00453021004E
:10137000C0007630BF00E030BE000030BD0022006B
:101380006D082100C40022006C082100C300220067
:101390006B082100C20022006A082100C1009531BB
:1013A0000825883140082200ED0021003F08220076
:1013B000EC0021003E082200EB0021003D08220045
:1013C000EA003B302000BA005B30B900CF30B800F3
:1013D0000F30B70022006D082000BE0022006C080C
:1013E0002000BD0022006B082000BC0022006A081B
:1013F0002000BB008531D42588313A082200ED0059
:10140000200039082200EC00200038082200EB0000
:10141000200037082200EA006D082100C0002200E9
:101420006C082100BF0022006B082100BE002200D2
:101430006A082100BD003F30C4008030C300003086
:10144000C2000030C10095310825883140082200D3
:10145000ED0021003F082200EC0021003E082200A0
:10146000EB0021003D082200EA0043302100A300E8
:101470008830A2009330A1003330A00022006D0814
:101480002100A70022006C082100A60022006B08A2
:101490002100A50022006A082100A40091318621C4
:1014A00023082200ED00210022082200EC00210088
:1014B00021082200EB00210020082200EA006D082C
:1014C0002300D00022006C082300CF0022006B080C
:1014D0002300CE0022006A082300CD0008002B085C
:1014E00080392000CB004B082100B0002B352000B4
:1014F000CB004B082100B200AA1B3214320803199A
:101500008E2A320A031D8C2A0030AB000030AA005C
:101510000030A9000030A800AA17962A0030AB00BE
:101520000030AA000030A9000030A8002F08803940
:101530002000CB004B082100B0062F352000CB0047
:101540004B082100B100AE1B311431080319B52A34
:10155000310A031DB32A0030AF000030AE00003066
:10156000AD000030AC00AE17BD2A0030AF00003037
:10157000AE000030AD000030AC003108031D320871
:10158000031DCB2A0030AB000030AA000030A900B8
:101590000030A800080028082000CB004B08A90054
:1015A00021002E0890311F208A312A082100BC001A
:1015B000200029082100BB003B082000CB00CC0103
:1015C000CD01CE014E082100B60020004D082100BB
:1015D000B50020004C082100B40020004B08210079
:1015E000B3003C082000CB00CC01CD01CE014E0859
:1015F0002100BA0020004D082100B90020004C084D
:101600002100B80020004B082100B7002908200065
:10161000CB004B08A90021002D0890311F208A31F2
:101620002A082100BC00200029082100BB003B083B
:101630002000CB00CC01CD01CE014B082100B30727
:1016400020004C082100B43D20004D082100B53D8C
:1016500020004E082100B63D3C082000CB00CC0104
:10166000CD01CE014B082100B70720004C08210016
:10167000B83D20004D082100B93D20004E08210052
:10168000BA3D2A082000CB004B08A90021002C08F5
:1016900090311F208A312A082100BC00200029082F
:1016A0002100BB003B082000CB00CC01CD01CE01C6
:1016B0004B082100B30720004C082100B43D200056
:1016C0004D082100B53D20004E082100B63D3C08E4
:1016D0002000CB00CC01CD01CE014B082100B70783
:1016E00020004C082100B83D20004D082100B93DE4
:1016F00020004E082100BA3D0830B335B40DB50DB9
:10170000B60D890B7D2B29082000CB004B08A900C2
:1017100021002C0890311F208A312A082100BC00AA
:10172000200029082100BB003B08B3073C08B43D5A
:101730000030B53DB63D28082000CB004B08A9007D
:1017400021002D0890311F208A312A082100BC0079
:10175000200029082100BB003B08B3073C08B43D2A
:101760000030B53DB63D0830B335B40DB50DB60DFE
:10177000890BB42B28082000CB004B08A9002100BE
:101780002C0890311F208A312A082100BC0020003B
:1017900029082100BB003B08B3073C08B43D0030DA
:1017A000B53DB63D29082000CB004B08A90021001B
:1017B0002E0890311F208A312A082100BC00200009
:1017C00029082100BB003B08B7073C08B83D0030A2
:1017D000B93DBA3D2A082000CB004B08A9002100E2
:1017E0002D0890311F208A312A082100BC002000DA
:1017F00029082100BB003B08B7073C08B83D003072
:10180000B93DBA3D2A082000CB004B08A9002100B1
:101810002E0890311F208A312A082100BC002000A8
:1018200029082100BB003B082000CB0021003C0818
:101830002000CC00CD01CE010830CB35CC0DCD0D34
:10184000CE0D890B1D2C4B082100B70720004C083A
:101850002100B83D20004D082100B93D20004E0870
:101860002100BA3D36082000CB00CC01CD01CE01CD
:101870004B082100B70720004C082100B83D20008C
:101880004D082100B93D20004E082100BA3D083026
:10189000B335B40DB50DB60D890B482C32083107A0
:1018A0002000CB00CC01CC0D4B08823E2100BB00B8
:1018B000FF3020004C3D2100BC00B91B742C0130CE
:1018C000B735B80DB90DBA0D890B602CB61B37149E
:1018D0000130B335B40DB50DB60D890B692CFF3051
:1018E000BB07FF30BC3D5D2CB101B61F962CFF300D
:1018F00033052000CB00FF30210034052000CC0050
:10190000FF30210035052000CD007F302100360555
:101910002000CE004E084D044C044B04031D932CB4
:101920002100371C962C2100B101B10A310803199E
:10193000CD2C0130B7070030B83D0030B93D003044
:10194000BA3D3A1CCD2C37082000CB0021003808C6
:101950002000CC00210039082000CD0021003A08E9
:101960002000CE000130CF00CE37CD0CCC0CCB0CFC
:10197000CF0BB42C4E082100BA0020004D082100E6
:10198000B90020004C082100B80020004B082100BD
:10199000B7000130BB070030BC3D3C08803A200056
:1019A000CB0080304B02031DD82CFF3021003B02BE
:1019B000031CE42C7F302100BA008030B9000030D5
:1019C000B8000030B700142D21003C08803A2000F8
:1019D000CB0080304B02031DF02C013021003B0274
:1019E0000318FD2C00302100BA000030B90000308F
:1019F000B8000030B700B001142D21003B082000D2
:101A0000CB004B082100B200FF30B705FF30B8050E
:101A10007F30B9050030BA053218B91732362000C8
:101A2000CB004B082100BA0030082000CB004B0847
:101A30002100BA043A08AB003908AA003808A90006
:101A40003708A800080000302300EB000030EA004F
:101A50000030E9000030E800D201D301D830860020
:101A60000130870010302000D00000301E00D00B65
:101A7000362D9F310F278D311A302000D000F830DD
:101A8000890B402DD00B402D0000E0302000A90034
:101A90001F30AA009F31C1278D312A082300D900A9
:101AA000200029082300D800E1302000A9001F30C1
:101AB000AA009F31C1278D312A082300DB002000B6
:101AC00029082300DA00E2302000A9001F30AA0014
:101AD0009F31C1278D312A082300DD00200029080D
:101AE0002300DC00E3302000A9001F30AA009F3152
:101AF000C1278D312A082300DF0020002908230098
:101B0000DE00580A3F300319590603198C2D343072
:101B100059065804031D8E2DD801D9015C0A3F30A7
:101B200003195D060319992D34305D065C04031D0D
:101B30009D2D9030DC000130DD005A0A3F30031942
:101B40005B060319A82D34305B065A04031DAC2D27
:101B50008430DA000330DB005E0A3F3003195F0691
:101B60000319B72D34305F065E04031DBB2D08300A
:101B7000DE000730DF0001309E31E5268D311A305E
:101B80002000D000F830890BC32DD00BC32D0000EE
:101B90008B170B1764008030933106238D3140087A
:101BA0002300EB0021003F082300EA0021003E084B
:101BB0002300E90021003D082300E800A030933114
:101BC00006238D3140082300D70021003F08230061
:101BD000D60021003E082300D50021003D08230047
:101BE000D400031022000E1F0314031CFA2D220040
:101BF0000E17FC2D22000E13230057082100E600CB
:101C0000230056082100E500230055082100E400C8
:101C1000230054082100E3008831E7208D3174301F
:101C20002806253003192906031D202E5108031DFF
:101C3000202E0030A9000130A800D101D10A9F2E2A
:101C400019302806123003192906031D482E5103A6
:101C5000031D482EA801A9018B130B13E0302000AF
:101C6000AC001F30AD00D830D0005008AE0092312B
:101C7000A0228D3182302000D000DD30890B3E2E35
:101C8000D00B3E2E00328B170B172300D1019F2E55
:101C90000030A9000130A800510303198C2E992EA1
:101CA0002D08D9002C08D8006B082100DA00230089
:101CB0006A082100D900230069082100D800230008
:101CC00068082100D70092313B228D31580823004B
:101CD000DB00210057082300DA009F2E2D08DD00CD
:101CE0002C08DC006B082100DA0023006A082100C0
:101CF000D900230069082100D800230068082100CA
:101D0000D70092313B228D3158082300DF0021009B
:101D100057082300DE009F2E2B08003A0319912E4E
:101D20009F2E2A08013A0319502E033A03196E2EEA
:101D30009F2EA801A901AA01AB01AC01AD01510878
:101D4000031DFD2F6B082000BA0023006A08200045
:101D5000B900230069082000B800230068082000AB
:101D6000B70023005A082000A90023005B082000C8
:101D7000AA00AB01AC010030883152208D312C0813
:101D8000BE002B08BD002A08BC002908BB00933107
:101D90007F238D31031C392F23005E082000A9000A
:101DA00023005F082000AA00AB01AC01003088319D
:101DB00052208D312C08BA002B08B9002A08B8002F
:101DC0002908B70023006B082000BE0023006A0822
:101DD0002000BD00230069082000BC002300680823
:101DE0002000BB0093317F238D31031C392F23004A
:101DF0006B082200A30023006A082200A20023002F
:101E000069082200A100230068082200A000230026
:101E10005A082200A40023005B082200A500A601A6
:101E2000A70123005E082200A80023005F0822000B
:101E3000A900AA01AB01230058082200AC0023002E
:101E400059082200AD00AE01AF0123005C0822005A
:101E5000B00023005D082200B100B201B30193314C
:101E6000FA238D3121082300D3002200200823000B
:101E7000982F23006B082000BA0023006A08200076
:101E8000B900230069082000B8002300680820007A
:101E9000B70023005A082000A90023005B08200097
:101EA000AA00AB01AC010030883152208D312C08E2
:101EB000BE002B08BD002A08BC002908BB009331D6
:101EC0007F238D310318692F23005908D300580848
:101ED000982F23005E082000A90023005F0820003F
:101EE000AA00AB01AC010030883152208D312C08A2
:101EF000BA002B08B9002A08B8002908B700230047
:101F00006B082000BE0023006A082000BD002300EB
:101F100069082000BC00230068082000BB00933142
:101F20007F238D310318992F23005D08D3005C08AF
:101F3000D20023005308A1005208A0006B08210022
:101F4000DA0023006A082100D90023006908210073
:101F5000D800230068082100D70092313B228D3140
:101F600058082300A300210057082300A2005008AE
:101F70002100AF0023004F082100AE0023004E08CF
:101F80002100AD0023004D082100AC004230AB0021
:101F9000C830AA000030A9000030A8008A316F22A2
:101FA0008D312B08DA002A08D9002908D800280822
:101FB000D70092313B228D3158082300A500210023
:101FC00057082300A40057082100DA002300560810
:101FD0002100D900230055082100D800230054080F
:101FE0002100D70092313B228D3158082300A700F1
:101FF000210057082300A600CA2DA001A1019E2F91
:1020000000308B1B0130AB008B132908230091009B
:1020100020002A08230092001513151615155530B7
:102020009600AA30960095140000000023001511B8
:1020300020002B0C031C8B1303188B1708002000A7
:10204000B100AD01AE012908AB00AC012B08AF0017
:102050002C08B000311C30282F08AD073008AE3DE9
:102060000130AF35B00D890B31280310B10C3108A8
:10207000031D2A282E08AA002D08A9000800BF0069
:102080003F089131B9219031003A031940283E08A8
:10209000AA003D08A9003C089E31D12690310030AD
:1020A0002000AE00AF00B0019E31512690319D312D
:1020B000862590319F3187279031013A031D080012
:1020C0005A28F2007208F000F1017008FA0671084F
:1020D000FB06F501F301F4017A1C72280130F300CC
:1020E0000030F4000130FB36FA0C890B73287308BA
:1020F000740403197F280130FA06A030FB06013072
:10210000F0007008F50708307502031808006A2807
:1021100020009601E0309700111023001908F90003
:102120004708B03E86000130870079088100013001
:10213000F9007908C70707304706031DA8281030A3
:102140003106031DA8283608013EF9007908C907A1
:1021500047084906031D08009631812608009601AC
:10216000E030970011102300480846020318C328E6
:102170004608B03E86000130870001089A00013011
:10218000F0007008C60746084806031D08009E1C9C
:10219000C7282100111223009E12C7010830F00049
:1021A0007008C90022008E13200018140800AD002A
:1021B00029082A040319EF282D35203E8600023015
:1021C00087002908C03F2A08C13F2B08AC002D0812
:1021D0002C3E8600023087002C08810008002D3537
:1021E000203E8600023087004730C03F1D30C13F8F
:1021F0002D082C3E860002308700810108009D31A9
:102200004F25903124003C1C11299D31AE25903181
:10221000003A031911290F302000B60036082400B7
:10222000BA003A082000B600B701B635B70D003045
:10223000360784009830373D8500013F8A00003F13
:102240000A0091312000B80038082400BA000800C4
:102250002400BC1535299D316E2508009D314D2582
:10226000033008009D31722508002C082000B300BF
:102270003308B200240021088A0020080A009131A6
:102280002000B400B5013508003A03194829322965
:102290003408013A03193229033A03192B29013A68
:1022A00003192B29073A03192E2932290800240083
:1022B0003C1002302000B30033082400BB00662924
:1022C0009D316E2508009D31722508002E082000E2
:1022D000B3003308B2000430203E8600023087008D
:1022E000413F8A00403F0A0091312000B400B5010F
:1022F0003508003A03197D2963293408023A031985
:102300006029013A03196029632908008030A30677
:1023100027082000BA00210026082000B90021006B
:1023200025082000B800210024082000B700210063
:1023300023082000BE00210022082000BD0021004B
:1023400021082000BC00210020082000BB008531AE
:10235000D4253A082100A300200039082100A2005A
:10236000200038082100A100200037082100A0002B
:102370000800AA00AB01AB0A24003C19F329200095
:102380002A08A90029082400B600BC103C153C10FE
:102390000E302000A90029082400BA00F430B4004F
:1023A0000130B500BC154730A0001D30A100AC01C4
:1023B0004730A2001D30A300AD014730A4001D30FE
:1023C000A500AE014730A6001D30A700AF0149307F
:1023D000A8001D30A900B0019D314F2591319E31DB
:1023E00045262000AB0120002B0808002100911297
:1023F00088302000A9001030AA009D31F4259131C9
:1024000021001112AF302000A9001030AA009D3128
:1024100099259131083023009F0090309D00243091
:102420009E00CF309B009C0100302000A9000030AE
:10243000AA009D31E425913100302000A900003030
:10244000AA009D31EC25913100302000A900003018
:10245000AA009D31DC252000D801DD01DC014030DF
:10246000AB002B082100EE002000DB01DA01D901CE
:102470002100911608000310590D5A0DDB005B086E
:10248000E1006108031D4D2A0030DA000030D90058
:102490000030D8000030D70008005708DB0058088B
:1024A000DC005908DD005A08DE001F30DE36DD0C86
:1024B000DC0CDB0C890B562A5B08DF005F08E000B0
:1024C000D917FF30D705FF30D805FF30D9050030C8
:1024D000DA059630E102E11F802A6108803A973ED2
:1024E000031C442A0130DA36D90CD80CD70C890BDE
:1024F000732A0130DB005B08E1070319912A722A75
:10250000203061020318442A61080319912A01301E
:10251000D735D80DD90DDA0D890B882A0130E102A3
:10252000842A600803190800D709D809D909DA09EB
:10253000D70A0319D80A0319D90A0319DA0A0800B5
:10254000E0302C05B2001F302D05B30000308B1B8E
:102550000130B40033082D06031DB02A32082C06C2
:10256000031D08008B132D08AA002C08A900903128
:102570000020923123001513151595162000B50182
:102580002C082300910020002D0823009200200039
:1025900035352E07AF002F0886000130870001086F
:1025A00023009300200035352E07AF002F0886004A
:1025B00001308700403FB000413FB10031082300A7
:1025C00094001F3020003506031DE82A23009512D1
:1025D000553023009600AA309600951400000000A4
:1025E00001302000AC070030AD3D0130AF002F08B6
:1025F000B50720303502031CC02A23001511200026
:10260000340C031C8B1303188B1708002100C50022
:102610000030C6000030C7000030C80045081C3834
:102620009E316B26933105302100C2004330C1003A
:10263000E330890B192BC10B192BC20B192B00325C
:1026400003302100C10041082000C000C6309E3187
:102650007926933121004608C100C201C301C4019B
:102660004408CC004308CB004208CA004108C90016
:102670000830C935CA0DCB0DCC0D890B392B470855
:10268000C9040830C935CA0DCB0DCC0D890B422BBE
:102690004808C9043C30AB008030AA000030A900D3
:1026A0000030A8004C082000AC0021004B0820009E
:1026B000AB0021004A082000AA00210049082000A0
:1026C000A90000308831522093312C082100AF003E
:1026D00020002B082100AE0020002A082100AD00B8
:1026E000200029082100AC008A316F222B08C0008D
:1026F0002A08BF002908BE002808BD0008000030D5
:102700003705BF0000303805C00080303905C100F2
:102710007F303A05C2004208410440043F04031DD3
:10272000992B0030BA000030B9000030B8000030FA
:10273000B70000303B05BF0000303C05C0008030D2
:102740003D05C1007F303E05C200420841044004FF
:102750003F04031DB32B0030BE000030BD0000302D
:10276000BC000030BB00BA1FCD2B0030BF000030D2
:10277000C0000030C1008030C2003708BF023808F6
:10278000C03B3908C13B3A08C23B4208BA00410885
:10279000B9004008B8003F08B700BE1FE72B003063
:1027A000BF000030C0000030C1008030C2003B08D4
:1027B000BF023C08C03B3D08C13B3E08C23B42084B
:1027C000BE004108BD004008BC003F08BB0080308F
:1027D000BA068030BE063E083A02031D08003D08D6
:1027E0003902031D08003C083802031D08003B089D
:1027F0003702080023082100A70022002208210038
:10280000A600220021082100A500220020082100A6
:10281000A400220027082000AC0022002608200087
:10282000AB00220025082000AA0022002408200076
:10283000A90001308831522093312C082100A300D7
:1028400020002B082100A20020002A082100A1005E
:10285000200029082100A00091318621933123080E
:10286000AF002208AE002108AD002008AC00220015
:102870002C0830022100E20022002D08313B21000B
:10288000E30022002E08323B2100E40022002F0842
:10289000333B2100E50065082000AC0021006408FE
:1028A0002000AB00210063082000AA00210062087C
:1028B0002000A90001308831522093312C082100DA
:1028C000AB0020002B082100AA0020002A082100CC
:1028D000A900200029082100A8008A316F22933125
:1028E0002B08C4002A08C3002908C2002808C10018
:1028F0002200240828022100E60022002508293BA6
:102900002100E700220026082A3B2100E8002200DF
:1029100027082B3B2100E90069082000AC002100BA
:1029200068082000AB00210067082000AA002100F1
:1029300066082000A90001308831522093312C080C
:102940002100C00020002B082100BF0020002A0821
:102950002100BE00200029082100BD009531082576
:1029600093314008ED003F08EC003E08EB003D08C5
:10297000EA006D082000BE0021006C082000BD00A8
:1029800021006B082000BC0021006A082000BB0069
:1029900022002F082000AC0022002E082000AB00EF
:1029A00022002D082000AA0022002C082000A900E7
:1029B00001308831522093312C08BA002B08B9001D
:1029C0002A08B8002908B7008531D42593313A0880
:1029D0002100DA00200039082100D9002000380841
:1029E0002100D800200037082100D70092313B2277
:1029F0005A082200A300210059082200A200210049
:102A000058082200A100210057082200A000080059
:102A100044088039C5004508CE004435C500450846
:102A2000D500C31B551455080319242D550A031D41
:102A3000212D0030C4000030C3000030C20000303F
:102A4000C100C317C4012C2D0030C4000030C300E6
:102A50000030C2000030C10040088039C500450880
:102A6000CE064035C5004508D600BF1B5614560893
:102A70000319482D560A031D452D0030C0000030B3
:102A8000BF000030BE000030BD00BF17C001502D98
:102A90000030C0000030BF000030BE000030BD007C
:102AA00040083F043E043D04031D6F2D0030C40068
:102AB0000030C3000030C2000030C1008030C304C9
:102AC0007F30C4044E08C5004508C4044408C00053
:102AD0004308BF004208BE004108BD000800550879
:102AE000031D7B2D0030C0000030BF000030BE0051
:102AF0000030BD0008005508C500C6014608C800E2
:102B000056084502C700031CC80347087F3ECF0094
:102B10000030483DD0004408CD004308CC004208B6
:102B2000CB004108CA000030C4000030C3000030B0
:102B3000C2000030C1000030D4000030D3000030AB
:102B4000D2000030D100D6011A3056020318E02D11
:102B500056080319C22D0130CA35CB0DCC0DCD0D51
:102B6000890BAC2D0130C135C20DC30DC40D890BCD
:102B7000B32DD41B41140130D135D20DD30DD40D5A
:102B8000890BBC2D40084D02031DD02D3F084C027F
:102B9000031DD02D3E084B02031DD02D3D084A02D7
:102BA000031CDB2D54173D08CA023E08CB3B3F08EF
:102BB000CC3B4008CD3B0130C5004508D607A42DCD
:102BC0004D084C044B044A04031D5114C31BFD2D36
:102BD0000130C135C20DC30DC40D890BE92DD41BC5
:102BE00041140130D135D20DD30DD40D890BF22D06
:102BF000FF30CF07FF30D03DE62DD601D41F162E73
:102C0000FF305105C500FF305205C600FF305305A7
:102C1000C7007F305405C8004808470446044504EF
:102C200003194118142E162ED601D60A5608031978
:102C30003F2E0130C1070030C23D0030C33D00309F
:102C4000C43D441C3F2E4108C5004208C60043084D
:102C5000C7004408C8000130C900C837C70CC60CFB
:102C6000C50CC90B2D2E4808C4004708C3004608F0
:102C7000C2004508C1000130CF070030D03D5008E8
:102C8000803AC50080304502031D482EFF304F02B8
:102C9000031C572EFF302100CF000030D000003041
:102CA000C4000030C3000030C2000030C100210069
:102CB0005008803AC50080304502031D612E013066
:102CC0004F0203186F2E2100CF01D0010030C40045
:102CD0000030C3000030C2000030C100CE0121002E
:102CE0004F08C5004508D500551C782EC3177C2E0B
:102CF0007F30C5004508C3055536C5004508C400EA
:102D0000622DFF30FA00FF30FB002000A701A80170
:102D100023004908FE3EF600FF3003180030F7009C
:102D2000770820002802031D972E76082702031833
:102D3000A72E2708B03E8600013087000108903199
:102D4000612096310130A7070030A83D882E280861
:102D5000F7002708F600A70A0319A80A7608B03E6C
:102D600086000130870001087A060319BA2E230075
:102D7000CA1508002708B03E8600013087007B088E
:102D80000106031DB72E230030084C06031D080062
:102D9000C801A52F0230F6007608C80032082000CE
:102DA000A600230033082000A50023003535F600D7
:102DB0004808B03E86000130870076088100013067
:102DC000F6007608C8073508F60076082000A0004F
:102DD0002608A8002508A70020082507F6002608D1
:102DE0000318260AF70077082802031DF92E760833
:102DF00027020318B82F2735A03E86000130870030
:102E0000403FF600413FF7007708F80023004808EC
:102E1000B03E860001308700780881000130F6005E
:102E20007608C80720002735A03E860001308700BD
:102E30000108F60023004808B03E860001308700F4
:102E4000760881000130F6007608C80701302000BE
:102E5000A7070030A83DEC2E3208F600F7017608EF
:102E60002000A7007708A8000830A735A80D890B17
:102E7000352F23003308F600F70176082000A70459
:102E80007708A80423003408F600F701760820002C
:102E9000A3007708A4000830A335A40D890B4C2F9C
:102EA00023003508F600F70176082000A304770810
:102EB000A4042735A03E8600013087002308C03FC8
:102EC0002408C13F0630F60076082300C800B82F5A
:102ED0003308F600F701F635F70D76082000A50057
:102EE0007708A6000730A1000030A2002608A8003D
:102EF0002508A7002300360820002507F60026082D
:102F00000318260AF70077082802031D892F760880
:102F100027020318622F2108B03E86000130870087
:102F20000108F600F7012735A03E86000130870032
:102F30007608C03F7708C13F0130A1070030A23DAD
:102F40000130A7070030A83D7A2F3108F600F701BD
:102F50007708003A0319AD2FB82F7608033A031902
:102F6000CA2E053A03192C2F163A0319682FB82FC9
:102F7000FF30FA00FF30FB002000A701A80123006A
:102F80004808F600F701770820002802031DCA2F21
:102F9000760827020318DA2F2708B03E8600013092
:102FA000870001089031612096310130A707003079
:102FB000A83DBF2F7A08F60023004808B03E8600DF
:102FC00001308700760881000130F6007608C807D6
:102FD0007B08F6004808B03E86000130870076087E
:102FE00081000130F6007608C80720001810230081
:102FF000C60122008E172100111623009E1608001C
:103000008A341D34D4341D34CD341D340334083493
:10301000B5340734B4341D342834113466341D34C7
:103020006A341D346E341D3472341D3476341D34CC
:103030007A341D347E341D348F341D3457341134AA
:1030400026349E3478343E34EE34E93491343E34C0
:103050001334CE34CC343E34AA34AA342A343F3428
:10306000D134F734173437348034713431343F3449
:103A880008001614080001300800053008009615D3
:103A980008009115080020009111080024009512D3
:103AA8000800210091110800240096140800240041
:103AB80016150800240096161616080024009612FB
:103AC800161608009D315825013008009D315825EB
:103AD800023008009D315825013008009D315B25D2
:103AE800003008009D316225053008009D315E25B3
:103AF8000A3008009D315E250930080001309F31E9
:103B0800A327080000309F31A32708002400BC1019
:103B1800BB010E3008002400BC10BB010E300800A9
:103B28002000911908002400942D2A08E50029088E
:103B3800E40008002A08DF002908DE0008002A0837
:103B4800E1002908E00008002000A9002908240055
:103B5800910008002400160E890C890C0139080010
:103B680024003C109D314B250430080070302100A2
:103B78009900220096010800640080010131890B38
:103B8800C12D00340B112000660895009E310526D2
:103B9800080024003C1436359D31A8250330080060
:103BA80024003C140314360D9D31A8250530080067
:103BB8002A082500E100200029082500E000080067
:103BC8002A082300ED00200029082300EC00080043
:103BD8002A082400EE00200029082400ED0008002F
:103BE8002A082300EF00200029082300EE0008001F
:103BF800BC1C08009D3194259D319031FF209D31DA
:103C0800FC2D5E085F04031908005F088A005E083F
:103C18000A009E3108006008610403190800610861
:103C28008A0060080A009E31080080302400940051
:103C380008309500960113309200951208009601FD
:103C4800E030970011102300C7010830F000700819
:103C5800C900080011106308F1006208F0009E31E5
:103C68005D269E319E310F2608002F08AA002E08D7
:103C7800A9003008B1003108AB0000309031D720DE
:103C880008002400951A0800803094000830950038
:103C9800960113309200951608002F08AA002E08E6
:103CA800A9003008B1003108AB0002309031D720AC
:103CB8000800181D662E18107108970070089600E5
:103CC8001814080071089700700896000800200072
:103CD800C1004130C0004008BC000130BD000030C8
:103CE800BE00683090313F200800C4004408C1007D
:103CF8004108BC004008C200C3014208BD00430897
:103D0800BE0068309F316D27080002302000A900EE
:103D18000030AA0032089E31D1269E3100302000A2
:103D2800AE00AF00B0019E313926043008000130E2
:103D38002000A9000030AA0032089E31D1269E3109
:103D480000302000AE00AF00B0019E3139260230AD
:103D5800080002302000A9000030AA0032089E3175
:103D6800D1269E3100302000AE00AF00B0019E3158
:103D780039260230080001302000A9000030AA00CE
:103D880032089E31D1269E3100302000AE00AF00AF
:103D9800B0019E31392604300800AC002400BC1D57
:103DA800080020002C08AB002B082400B7002000D6
:103DB8002A082400B900200029082400B800BC11F2
:103DC80008002000AA002300CA01CB0120002A080D
:103DD800A90029082300CC00C70108302000A90049
:103DE80029082300C90022008E13080021001508A5
:103DF800C03917389500F83020009500F830AB002E
:103E08002B08E6000B118B164430A9001D30AA00C0
:103E18009D319E2508009E3119269F319F315427D8
:103E28009F319D31BA259F318731FC279F319F31C2
:103E380024279F319E31FA269F319131F6210800BF
:103E480020009901B1309700E03096001110170852
:103E5800E3001608E2002100111423302000A90015
:103E68001E30AA009D31A3250130980008002000CB
:103E7800320886008701403FA900413FAA00320866
:103E8800023E8600870101089E31D1269F3100300D
:103E98002000AE00AF00B0019E3139260230080084
:103EA80022008C018D018E013F3021008C00703082
:103EB8008D003F308E000F3023008E008D011730AB
:103EC8008C0024008D018C012100951722009D0192
:103ED8000800BF003F089131B9219F31003A03190A
:103EE8006E2F3E08AA003D08A9003C089E31D12645
:103EF8009F319D3182259F319F3187279F31013A1C
:103F0800031D0800802FAA01AA0A2400BC18A02FAC
:103F18003C11FF302000A90029082400B6009D317B
:103F28004F259F319D3155259F319D3152253B08A5
:103F38002000A9002908AA0020002A08080020005B
:103F4800BA00BB01BB0A2400BC18BE2FBC14200059
:103F5800BB013A080319B42F2400BA01BA0AB92FD1
:103F68000230B90039082400BA009D3145259F3137
:103F78009D31FC2520003B08080000308B1B0130D8
:103F8800AB008B1329082300910020002A08230086
:103F98009200151315140000000020002B0C031CC0
:103FA8008B1303188B17230014082000AA00230082
:103FB80013082000A900080000340034003400343D
:103FC8000034003400340034003400340034003449
:103FD8000034003400340034003400340034003439
:103FE8000034003400340034003400340034003429
:103FF8000034003400340034003400340034003419
:104008000034003400340034003400340034003408
:1040180000340034003400340034003400340034F8
:1040280000340034003400340034003400340034E8
:084038000034003400340034B0
:020000040001F9
:08000000FF3FFF3FFF3FFF3F00
:04000E00FA3FFF3F77
:00000001FF
