:1000000080314828053008007E1480318B1E092875
:100010000A2812280B1D0D280E2812289B310923AF
:10002000803146280B1F1528162846282100111E4E
:100030001A281B2827282000111E1F2820282728BF
:1000400023006F088A006E080A00803146282100CC
:10005000911E2B282C2838282000911E302831286A
:10006000382823006D088A006C080A008031462871
:100070002100111C3C283D2846282000111C412845
:10008000422846289B317F23803146287E10090074
:1000900080314A288731FE278031E4008731FF27ED
:1000A0008031E500FC01FD01513084000030850005
:1000B0000B309A31FC2280312200EE01EF01A0309A
:1000C00084000130850032309A31FC2280312030AA
:1000D0008400023085003D309A31FC228031A0300E
:1000E00084000230850050309A31FC2280317E102D
:1000F00020008C319D2C200054082200D9002000C3
:1001000053082200D800200052082200D700200007
:1001100051082200D60021005A082200D9002100EF
:1001200059082200D800210058082200D7002100D9
:1001300057082200D6005908E1005808E000570887
:10014000DF005608DE00BC01BD016108031DAE28BA
:1001500080306002031CAD28AE28CD2822005E0846
:100160002100DB0022005F082100DC002200600883
:100170002100DD00220061082100DE001F30DE3694
:10018000DD0CDC0CDB0C890BBF285E085D045C0415
:100190005B040319CC28CD28AD2922005E0821007C
:1001A000DB0022005F082100DC0022006008210043
:1001B000DD00220061082100DE000130DB35DC0DAE
:1001C000DD0DDE0D890BDE285E085D045C045B043A
:1001D000031DEB28EC281D295A08AB005908AA007A
:1001E0005808A9005708A8005A08AF005908AE00DF
:1001F0005808AD005708AC008931A4218031210096
:100200002B08C0002A08BF002908BE002808BD002E
:10021000BF30C4008030C3000030C2000030C100D5
:1002200086311F26803121004008DA003F08D900BE
:100230003E08D8003D08D7001E2E22005E0821008F
:10024000DB0022005F082100DC00220060082100A2
:10025000DD00220061082100DE001F30DE36DD0CEB
:10026000DC0CDB0C890B2E295E085D045C045B044E
:1002700003193B293C29732921302200EE0000306C
:10028000EF0000302100C0000030BF000030BE0091
:100290000030BD005A08A3005908A2005808A10068
:1002A0005708A0005A08A7005908A6005808A5003A
:1002B0005708A4009E31D926803121002308C400AC
:1002C0002208C3002108C2002008C10086311F2671
:1002D000803121004008DA003F08D9003E08D800EC
:1002E0003D08D7001E2EE7302200BC07FF30BD3D81
:1002F0004C302100AB000030AA000030A9000030D3
:10030000A8005A08AF005908AE005808AD005708B9
:10031000AC008931A421803121002B08DA002A08A1
:10032000D9002908D8002808D7005A082200D90087
:10033000210059082200D800210058082200D700C7
:10034000210057082200D6005908E1005808E000B3
:100350005708DF005608DE00CD29803022006002F9
:100360007F30613B031CB529B629B7291E2E80308A
:10037000220060063F30031961065E045F04031D1E
:10038000C229C329CD2900302100DA000030D9006C
:100390000030D8000030D7001E2E0D302200DE07BE
:1003A000FB30DF3D4A30E03D0030E13D5E0821009A
:1003B000DB0022005F082100DC0022006008210031
:1003C000DD00220061082100DE001730DE36DD0C82
:1003D000DC0CDB0C890BE6295B08813EDF00FF307B
:1003E0005C3DE0005F082200BC072100600822009D
:1003F000BD3DF3302100DB000430DC003530DD0092
:100400003F30DE00FF3022005E052100DF00FF30BC
:1004100022005F052100E0007F30220060052100FE
:10042000E1000030220061052100E2005F08DB07E7
:100430006008DC3D6108DD3D6208DE3D5E082200AB
:10044000E10021005D082200E00021005C0822009C
:10045000DF0021005B082200DE006108D90060088F
:10046000D8005F08D7005E08D60059082100DA00DE
:10047000220058082100D900220057082100D80086
:10048000220056082100D700BF302000BB0080307A
:10049000BA000030B9000030B80021005A0820002E
:1004A000BF00210059082000BE002100580820008C
:1004B000BD00210057082000BC009531C8258031BF
:1004C00020003B082200DD0020003A082200DC006A
:1004D000200039082200DB00200038082200DA0062
:1004E00040302000BB000030BA000030B9000030BE
:1004F000B80022005D082000BF0022005C08200038
:10050000BE0022005B082000BD0022005A08200027
:10051000BC009531C825803120003B082100C00077
:1005200020003A082100BF00200039082100BE0049
:10053000200038082100BD0022005D082100C40011
:1005400022005C082100C30022005B082100C200D9
:1005500022005A082100C10086311F268031210067
:1005600040082200C90021003F082200C8002100E5
:100570003E082200C70021003D082200C6004908AD
:100580002100AB00220048082100AA0022004708F1
:100590002100A900220046082100A80022004908E5
:1005A0002100AF00220048082100AE0022004708C9
:1005B0002100AD00220046082100AC008931A421B1
:1005C000803121002B082200CD0021002A082200C2
:1005D000CC00210029082200CB002100280822009D
:1005E000CA004D082100AB0022004C082100AA00DF
:1005F00022004B082100A90022004A082100A8007F
:1006000022004D082100AF0022004C082100AE005E
:1006100022004B082100AD0022004A082100AC0056
:100620008931A421803121002B082200D100210032
:100630002A082200D000210029082200CF00210032
:1006400028082200CE003E302000BB00CC30BA008B
:10065000CE30B9001330B8003E302100AB00783006
:10066000AA009E30A9002630A800220051082100CF
:10067000AF00220050082100AE0022004F082100E8
:10068000AD0022004E082100AC008931A421803148
:1006900021002B082000BF0021002A082000BE00F6
:1006A000210029082000BD00210028082000BC00EE
:1006B0009531C825803120003B082200D50020005C
:1006C0003A082200D400200039082200D30020007C
:1006D00038082200D20051082100AB002200500847
:1006E0002100AA0022004F082100A90022004E0884
:1006F0002100A800220055082100AF002200540864
:100700002100AE00220053082100AD002200520853
:100710002100AC008931A421803121002B08220066
:10072000A70021002A082200A60021002908220093
:10073000A500210028082200A4003F302000BB00B3
:100740002A30BA00AA30B900AA30B8003E302100E1
:10075000AB009130AA00E930A900EE30A8002200D9
:1007600051082100AF00220050082100AE002200F5
:100770004F082100AD0022004E082100AC00893155
:10078000A421803121002B082000BF0021002A086D
:100790002000BE00210029082000BD0021002808FB
:1007A0002000BC009531C825803120003B08220084
:1007B000D50020003A082200D40020003908220089
:1007C000D300200038082200D2004D082100AB00E1
:1007D00022004C082100AA0022004B082100A90099
:1007E00022004A082100A800220055082100AF007D
:1007F000220054082100AE00220053082100AD0061
:10080000220052082100AC008931A421803121004E
:100810002B082200AB0021002A082200AA00210098
:1008200029082200A900210028082200A800270882
:100830002000BB00220026082000BA002200250864
:100840002000B900220024082000B80022002B0854
:100850002000BF0022002A082000BE002200290834
:100860002000BD00220028082000BC009531C825CA
:10087000803120003B082200A30020003A0822001B
:10088000A200200039082200A10020003808220020
:10089000A0003F302100AB000030AA000030A900CA
:1008A0000030A80022005D082100AF0022005C0893
:1008B0002100AE0022005B082100AD0022005A0892
:1008C0002100AC008931A421803121002B082200B5
:1008D000D50021002A082200D40021002908220086
:1008E000D300210028082200D2005D082100AB00BF
:1008F00022005C082100AA0022005B082100A90058
:1009000022005A082100A800220055082100AF004B
:10091000220054082100AE00220053082100AD003F
:10092000220052082100AC008931A421803121002D
:100930002B082200C10021002A082200C00021004B
:1009400029082200BF00210028082200BE003C0820
:100950002000AA0022003D082000AB00890D893B41
:100960008909AC00AD000130923152228031200063
:100970002D082200C50020002C082200C400200001
:100980002B082200C30020002A082200C2004908C8
:100990002100AB00220048082100AA0022004708DD
:1009A0002100A900220046082100A80022002308F7
:1009B0002000BB00220022082000BA0022002108EB
:1009C0002000B900220020082000B80022004108C1
:1009D0002000BF00220040082000BE0022003F0887
:1009E0002000BD0022003E082000BC009531C82533
:1009F000803120003B082100AF0020003A08210090
:100A0000AE00200039082100AD0020003808210088
:100A1000AC008931A421803121002B082200AF00D5
:100A200021002A082200AE00210029082200AD0082
:100A3000210028082200AC0037302100AB0017301D
:100A4000AA00F730A900D130A800220045082100F3
:100A5000AF00220044082100AE002200430821001C
:100A6000AD00220042082100AC008931A421803170
:100A700021002B082000BB0021002A082000BA001A
:100A8000210029082000B900210028082000B80012
:100A900022002F082000BF0022002E082000BE00E8
:100AA00022002D082000BD0022002C082000BC00E0
:100AB0009531C825803120003B082200B30020007A
:100AC0003A082200B200200039082200B1002000BC
:100AD00038082200B00041082100A300220040088D
:100AE0002100A20022003F082100A10022003E08B0
:100AF0002100A000220033082100A70022003208B4
:100B00002100A600220031082100A50022003008A3
:100B10002100A4009E31D926803121002308220023
:100B2000B700210022082200B6002100210822007F
:100B3000B500210020082200B4005D082000BB00A1
:100B400022005C082000BA0022005B082000B900E7
:100B500022005A082000B800220037082000BF00F9
:100B6000220036082000BE00220035082000BD000B
:100B7000220034082000BC009531C82580312000B7
:100B80003B082200BB0020003A082200BA002000E7
:100B900039082200B900200038082200B8003F3090
:100BA0002100AB003130AA007130A9008030A800CC
:100BB000220045082100AF00220044082100AE00B9
:100BC000220043082100AD00220042082100AC00B1
:100BD0008931A421803121002B082000BB00210095
:100BE0002A082000BA00210029082000B9002100AD
:100BF00028082000B80022003B082000BF00220087
:100C00003A082000BE00220039082000BD00220062
:100C100038082000BC009531C825803120003B08F1
:100C20002100DA0020003A082100D900200039080C
:100C30002100D800200038082100D700080021003A
:100C400044088039C5004508CE004435C500450834
:100C5000D500C31F2C2E2D2E2E2E551455080319EA
:100C6000322E332E432E550A031D372E382E402E9A
:100C70000030C4000030C3000030C2000030C100AA
:100C8000C317C4014B2E0030C4000030C300003035
:100C9000C2000030C10040088039C5004508CE06BA
:100CA0004035C5004508D600BF1F572E582E592E77
:100CB0005614560803195D2E5E2E6E2E560A031D1D
:100CC000622E632E6B2E0030C0000030BF0000305B
:100CD000BE000030BD00BF17C001762E0030C0003E
:100CE0000030BF000030BE000030BD0040083F04AF
:100CF0003E043D04031D7D2E7E2E972E0030C40041
:100D00000030C3000030C2000030C1008030C30496
:100D10007F30C4044E08C5004508C4044408C00020
:100D20004308BF004208BE004108BD00D22F55084D
:100D3000031D9B2E9C2EA52E0030C0000030BF004E
:100D40000030BE000030BD00D22F5508C500C601DE
:100D50004608C80056084502C700031CC8034708D8
:100D60007F3ECF000030483DD0004408CD0043080E
:100D7000CC004208CB004108CA000030C40000305B
:100D8000C3000030C2000030C1000030D400003089
:100D9000D3000030D2000030D100D6010D2F56080C
:100DA0000319D32ED42EEE2E0130CA35CB0DCC0D27
:100DB000CD0D890BD52E0130C135C20DC30DC40D2B
:100DC000890BDC2ED41FE52EE62EE72E41140130D0
:100DD000D135D20DD30DD40D890BE82E40084D022C
:100DE000031DFC2E3F084C02031DFC2E3E084B0247
:100DF000031DFC2E3D084A02031CFF2E002F092F65
:100E000054173D08CA023E08CB3B3F08CC3B400884
:100E1000CD3B0130C5004508D6071A305602031CE9
:100E2000122F132FCF2E4D084C044B044A040319E4
:100E30001A2F1B2F342F5114342F0130C135C20DFE
:100E4000C30DC40D890B1E2FD41F272F282F292F28
:100E500041140130D135D20DD30DD40D890B2A2F79
:100E6000FF30CF07FF30D03DC31F372F382F1D2F46
:100E7000D601D41F3C2F3D2F592FFF305105C500FF
:100E8000FF305205C600FF305305C7007F305405C0
:100E9000C80048084704460445040319502F512F41
:100EA000542FD601D60A592F411C572F582F592F8E
:100EB000512F560803195D2F5E2F862F0130C10771
:100EC0000030C23D0030C33D0030C43D441C692F9A
:100ED0006A2F862F4108C5004208C6004308C70094
:100EE0004408C8000130C900C837C70CC60CC50C7F
:100EF000C90B742F4808C4004708C3004608C20045
:100F00004508C1000130CF070030D03D5008803A7D
:100F1000C50080304502031D8F2FFF304F02031C98
:100F2000922F932FA02FFF302100CF000030D00050
:100F30000030C4000030C3000030C2000030C100E7
:100F400021005008803AC50080304502031DAA2FB9
:100F500001304F020318AD2FAE2FBA2F2100CF0161
:100F6000D0010030C4000030C3000030C2000030A7
:100F7000C100CE0121004F08C5004508D500551C11
:100F8000C22FC32FC52FC317C92F7F30C5004508F7
:100F9000C3055536C5004508C4004E08C5004508C0
:100FA000C4048E2E08002000AE002A082B0403196A
:100FB000DA2FDB2FEE2F2E35203E86000230870001
:100FC0002A08C03F2B08C13F2C08AD002E082C3E3C
:100FD0008600023087002D088100FD2F2E35203E2F
:100FE0008600023087007830C03F1A30C13F2E089B
:100FF0002C3E86000230870081010800FF34FF3458
:101000002000181D042805280C28181071089700C6
:101010007008960018141028710897007008960040
:10102000080044302100C0007A30BF000030BE000C
:101030000030BD006608C4006508C3006408C20033
:101040006308C10086311F26883121004008E60070
:101050003F08E5003E08E4003D08E300BF30200003
:10106000BB008030BA000030B9000030B800210069
:101070006608C0006508BF006408BE006308BD00C4
:101080004030C400A030C3000030C2000030C100B6
:1010900086311F268831210040082000BF00210032
:1010A0003F082000BE0021003E082000BD002100B6
:1010B0003D082000BC009531C825883120003B0840
:1010C0002200E90020003A082200E8002000390848
:1010D0002200E700200038082200E600690821000D
:1010E000C000220068082100BF002200670821001C
:1010F000BE00220066082100BD004730C400003059
:10110000C300E830C2000030C10086311F2688319C
:10111000210040082200E50021003F082200E400F1
:1011200021003E082200E30021003D082200E200E9
:1011300046302100C0001C30BF004030BE000030EF
:10114000BD00220065082100C400220064082100BF
:10115000C300220063082100C200220062082100AF
:10116000C10086311F268831210040082200ED0091
:1011700021003F082200EC0021003E082200EB0085
:1011800021003D082200EA006D082100DA0022005B
:101190006C082100D90022006B082100D800220031
:1011A0006A082100D70080317B20883121005A084D
:1011B0002200ED00210059082200EC00210058080F
:1011C0002200EB00210057082200EA0045302100F0
:1011D000C0007630BF00E030BE000030BD0022000D
:1011E0006D082100C40022006C082100C300220009
:1011F0006B082100C20022006A082100C10086316C
:101200001F268831210040082200ED0021003F0800
:101210002200EC0021003E082200EB0021003D08E6
:101220002200EA003B302000BB005B30BA00CF3028
:10123000B9000F30B80022006D082000BF00220066
:101240006C082000BE0022006B082000BD002200B8
:101250006A082000BC009531C825883120003B0871
:101260002200ED0020003A082200EC00200039089E
:101270002200EB00200038082200EA006D0821005F
:10128000C00022006C082100BF0022006B08210072
:10129000BE0022006A082100BD003F30C40080303B
:1012A000C3000030C2000030C10086311F268831E3
:1012B000210040082200ED0021003F082200EC0040
:1012C00021003E082200EB0021003D082200EA0038
:1012D00043302100A3008830A2009330A1003330B6
:1012E000A00022006D082100A70022006C08210048
:1012F000A60022006B082100A50022006A08210038
:10130000A4009E31D9268831210023082200ED0057
:10131000210022082200EC00210021082200EB001D
:10132000210020082200EA006D082300D0002200DE
:101330006C082300CF0022006B082300CE0022009F
:101340006A082300CD00080021002B088039200006
:10135000CC004C082100B0002B352000CC004C08FC
:101360002100B600AA1FB529B629B72936143608B8
:101370000319BB29BC29CB29360A031DC029C12961
:10138000C9290030AB000030AA000030A9000030AD
:10139000A800AA17D3290030AB000030AA00003003
:1013A000A9000030A8002F0880392000CC004C088C
:1013B0002100B0062F352000CC004C082100B100E0
:1013C000AE1FE329E429E529311431080319E9297D
:1013D000EA29F929310A031DEE29EF29F7290030FE
:1013E000AF000030AE000030AD000030AC00AE17F2
:1013F000012A0030AF000030AE000030AD000030F8
:10140000AC0031080319052A062A0B2A3608031DE9
:101410000A2A0B2A142A0030AB000030AA00003040
:10142000A9000030A8009C2C28082000CC004C0803
:10143000AA0021002E089D316A25893120002B0841
:101440002100BC0020002A082100BB003B0820002E
:10145000CC00CD01CE01CF014F082100B500200006
:101460004E082100B40020004D082100B3002000E8
:101470004C082100B2003C082000CC00CD01CE0178
:10148000CF014F082100BA0020004E082100B9000A
:1014900020004D082100B80020004C082100B700B2
:1014A00029082000CC004C08AA0021002D089D31FD
:1014B0006A25893120002B082100BC0020002A0861
:1014C0002100BB003B082000CC00CD01CE01CF01A4
:1014D0004C082100B20720004D082100B33D200038
:1014E0004E082100B43D20004F082100B53D3C08C6
:1014F0002000CC00CD01CE01CF014C082100B70760
:1015000020004D082100B83D20004E082100B93DC3
:1015100020004F082100BA3D2A082000CC004C08CA
:10152000AA0021002C089D316A25893120002B0852
:101530002100BC0020002A082100BB003B0820003D
:10154000CC00CD01CE01CF014C082100B207200014
:101550004D082100B33D20004E082100B43D20007D
:101560004F082100B53D3C082000CC00CD01CE0144
:10157000CF014C082100B70720004D082100B83DDD
:1015800020004E082100B93D20004F082100BA3D3F
:101590000830B235B30DB40DB50D890BC92A290831
:1015A0002000CC004C08AA0021002C089D316A259F
:1015B000893120002B082100BC0020002A082100CE
:1015C000BB003B08B2073C08B33D0030B43DB53D1D
:1015D00028082000CC004C08AA0021002D089D31CD
:1015E0006A25893120002B082100BC0020002A0830
:1015F0002100BB003B08B2073C08B33D0030B43DBE
:10160000B53D0830B235B30DB40DB50D890B022BC5
:1016100028082000CC004C08AA0021002C089D318D
:101620006A25893120002B082100BC0020002A08EF
:101630002100BB003B08B2073C08B33D0030B43D7D
:10164000B53D29082000CC004C08AA0021002E0836
:101650009D316A25893120002B082100BC00200023
:101660002A082100BB003B08B7073C08B83D003002
:10167000B93DBA3D2A082000CC004C08AA00210040
:101680002D089D316A25893120002B082100BC00DE
:1016900020002A082100BB003B08B7073C08B83DE2
:1016A0000030B93DBA3D2A082000CC004C08AA0001
:1016B00021002E089D316A25893120002B08210048
:1016C000BC0020002A082100BB003B082000CC0001
:1016D00021003C082000CD00CE01CF010830CC35E0
:1016E000CD0DCE0DCF0D890B6F2B4C082100B70708
:1016F00020004D082100B83D20004E082100B93DD2
:1017000020004F082100BA3D32082000CC00210003
:1017100033082000CD00210034082000CE00210035
:1017200035082000CF001830CF36CE0CCD0CCC0CB5
:10173000890B942B4C082100B70720004D0821008D
:10174000B83D20004E082100B93D20004F0821007F
:10175000BA3D0830B235B30DB40DB50D890BAA2BC7
:10176000360831072000CC00CD01CD0D4C08823E5B
:101770002100BB00FF3020004D3D2100BC00D72BD5
:101780000130B735B80DB90DBA0D890BC12BB51F96
:10179000CA2BCB2BCC2B37140130B235B30DB40D83
:1017A000B50D890BCD2BFF30BB07FF30BC3DB91FFA
:1017B000DA2BDB2BC02BB101B51FDF2BE02B052C67
:1017C000FF3032052000CC00FF302100330520001F
:1017D000CD00FF30210034052000CE007F302100F5
:1017E00035052000CF004F084E044D044C0403196A
:1017F000FA2BFB2BFF2B2100B101B10A052C210094
:10180000371C032C042C052CFB2B31080319092C45
:101810000A2C402C0130B7070030B83D0030B93DEC
:101820000030BA3D3A1C152C162C402C37082000ED
:10183000CC00210038082000CD002100390820000C
:10184000CE0021003A082000CF000130D000CF3771
:10185000CE0CCD0CCC0CD00B272C4F082100BA009D
:1018600020004E082100B90020004D082100B800DA
:1018700020004C082100B7000130BB070030BC3D00
:101880003C08803A2000CC0080304C02031D4B2CD9
:10189000FF3021003B02031C4E2C4F2C592C7F3073
:1018A0002100BA008030B9000030B8000030B70025
:1018B0008E2C21003C08803A2000CC0080304C0265
:1018C000031D652C013021003B020318682C692C94
:1018D000742C00302100BA000030B9000030B8008C
:1018E0000030B700B0018E2C21003B082000CC0056
:1018F0004C082100B600FF30B705FF30B8057F3037
:10190000B9050030BA05361C862C872C882CB917EF
:1019100036362000CC004C082100BA0030082000E8
:10192000CC004C082100BA043A08AB003908AA00E0
:101930003808A9003708A800080000302300EB0091
:101940000030EA000030E9000030E800D201D301A5
:10195000D83086000130870010302100EE000030C2
:101960001E00EE0BB02C9C314C248C311A3021001F
:10197000EE00F830890BBA2CEE0BBA2C0000E030E8
:101980002000AA001F30AB009C31C5248C31200000
:101990002B082300D90020002A082300D800E130BA
:1019A0002000AA001F30AB009C31C5248C312000E0
:1019B0002B082300DB0020002A082300DA00E23095
:1019C0002000AA001F30AB009C31C5248C312000C0
:1019D0002B082300DD0020002A082300DC00E33070
:1019E0002000AA001F30AB009C31C5248C312000A0
:1019F0002B082300DF0020002A082300DE00580AFD
:101A00003F30031959060319062D072D0E2D3430CA
:101A100059065804031D0D2D0E2D102DD801D90186
:101A20005C0A3F3003195D060319172D182D1F2D71
:101A300034305D065C04031D1E2D1F2D232D9030B8
:101A4000DC000130DD005A0A3F3003195B06031940
:101A50002A2D2B2D322D34305B065A04031D312DD7
:101A6000322D362D8430DA000330DB005E0A3F3041
:101A700003195F0603193D2D3E2D452D34305F06B9
:101A80005E04031D442D452D492D0830DE0007302E
:101A9000DF0001309C3121248C311A302100EE000E
:101AA000F830890B512DEE0B512D00008B170B17C1
:101AB0006400803091314B218C312100400823009B
:101AC000EB0021003F082300EA0021003E0823002C
:101AD000E90021003D082300E800A03091314B21AE
:101AE0008C31210040082300D70021003F0823004B
:101AF000D60021003E082300D50021003D08230028
:101B0000D400031022000E1F03140318882D8B2D00
:101B100022000E178D2D22000E13230057082100DE
:101B2000E600230056082100E500230055082100A7
:101B3000E400230054082100E300883111208C3197
:101B4000743023002806253003192906031DA92D0A
:101B5000AA2DB62D5108031DAE2DAF2DB62D003088
:101B6000A9000130A800D101D10A402E1930280661
:101B7000123003192906031DBE2DBF2DE42D51037C
:101B8000031DC32DC42DE42DA801A9018B130B1334
:101B9000E0302000AD001F30AE00D8302100EE0054
:101BA0006E082000AF00903168208C318230210017
:101BB000EE00DD30890BDA2DEE0BDA2D00328B17BB
:101BC0000B172300D101402E0030A9000130A800DE
:101BD0005103031DEC2DED2D392E2C2E2D08D9008F
:101BE0002C08D8006B082100DA0023006A082100C5
:101BF000D900230069082100D800230068082100CB
:101C0000D7009031D6208C31210058082300DB000A
:101C1000210057082300DA00402E2D08DD002C0893
:101C2000DC006B082100DA0023006A082100D900DB
:101C3000230069082100D800230068082100D7008C
:101C40009031D6208C31210058082300DF0021007C
:101C500057082300DE00402E2B08003A0319312ECE
:101C6000402E2A08013A0319EE2D033A03190D2ECE
:101C7000402EA801A901AA01AB01AC01AD01402E83
:101C80005108031D442E452EB32F6B082000BB00C6
:101C900023006A082000BA00230069082000B90068
:101CA000230068082000B80023005A082000AA007A
:101CB00023005B082000AB00AC01AD010030923185
:101CC00052228C3120002D08BF002C08BE002B08AA
:101CD000BD002A08BC009131C7218C31031C712E34
:101CE000722EE42E23005E082000AA0023005F0865
:101CF0002000AB00AC01AD010030923152228C319A
:101D000020002D08BB002C08BA002B08B9002A08B7
:101D1000B80023006B082000BF0023006A082000E1
:101D2000BE00230069082000BD00230068082000D1
:101D3000BC009131C7218C31031C9F2EA02EE42EB4
:101D400023006B082200A30023006A082200A200DF
:101D5000230069082200A100230068082200A000D7
:101D600023005A082200A40023005B082200A500DB
:101D7000A601A70123005E082200A80023005F0837
:101D80002200A900AA01AB01230058082200AC00E0
:101D9000230059082200AD00AE01AF0123005C080A
:101DA0002200B00023005D082200B100B201B3019F
:101DB0009231FF228C31220021082300D30022001F
:101DC00020082300D2004B2F23006B082000BB000B
:101DD00023006A082000BA00230069082000B90027
:101DE000230068082000B80023005A082000AA0039
:101DF00023005B082000AB00AC01AD010030923144
:101E000052228C3120002D08BF002C08BE002B0868
:101E1000BD002A08BC009131C7218C310318112F55
:101E2000122F182F23005908D3005808D2004B2F27
:101E300023005E082000AA0023005F082000AB00FA
:101E4000AC01AD010030923152228C3120002D08BE
:101E5000BB002C08BA002B08B9002A08B8002300E0
:101E60006B082000BF0023006A082000BE0023008A
:101E700069082000BD00230068082000BC009131E3
:101E8000C7218C310318452F462F4B2F23005D08A7
:101E9000D3005C08D20023005308A1005208A00020
:101EA0006B082100DA0023006A082100D900230012
:101EB00069082100D800230068082100D70090316C
:101EC000D6208C31210058082300A3002100570898
:101ED0002300A20050082100AF0023004F0821007A
:101EE000AE0023004E082100AD0023004D08210064
:101EF000AC004230AB00C830AA000030A90000306E
:101F0000A8008931A4218C3121002B08DA002A088D
:101F1000D9002908D8002808D7009031D6208C3164
:101F2000210058082300A500210057082300A40021
:101F300057082100DA00230056082100D9002300A9
:101F400055082100D800230054082100D700903103
:101F5000D6208C31210058082300A7002100570803
:101F60002300A600582DA001A1016B082100DA0072
:101F700023006A082100D900230069082100D80045
:101F8000230068082100D7009031D6208C31210031
:101F900058082300A300210057082300A20050087E
:101FA0002100AF0023004F082100AE0023004E089F
:101FB0002100AD0023004D082100AC004230AB00F1
:101FC000C830AA000030A9000030A8008931A4213F
:101FD0008C3121002B08DA002A08D9002908D80002
:101FE0002808D7009031D6208C31210058082300D2
:101FF000A500210057082300A400982F803148280D
:102000002000C2004230C1004108BD000130BE00C6
:102010000030BF0068309D318E25903108009A3124
:10202000DE229031003A0319162817284A2824285E
:102030009A31A622903167289A31AB2290316728D5
:102040009A31B5229031672824002F082000B4006F
:102050003408B3000630203E860002308700413F3E
:102060008A00403F0A0090312000B500B6013608D2
:10207000003A03193C2820283508013A0319202882
:10208000033A03191828013A03191C28073A0319BF
:102090002028202824003C101730203E86000230E3
:1020A0008700403F84008501810A00089A31D822C8
:1020B000903101302400B8020030B93B38083904AF
:1020C000031D63286428662806306728033008004B
:1020D000E03020002D05B3001F302E05B400003085
:1020E0008B1B0130B50034082E06031D79283308F8
:1020F0002D0603197C287D287E28D5288B132E08D1
:10210000AB002D08AA009C31E52490312300151363
:10211000151595162000B6012D082300910020000A
:102120002E0823009200200036352F07B00030081B
:102130008600013087000108230093002000363517
:102140002F07B0003008860001308700403FB10003
:10215000413FB2003208230094001F3020003606B1
:10216000031DB328B428B628230095125530230048
:102170009600AA309600951400000000013020005F
:10218000AD070030AE3D0130B0003008B60720305A
:102190003602031CCC28CD288C28230015112000E2
:1021A000350C031C8B1303188B1708000310210038
:1021B000590D5A0DDB005B08E1006108031DE128A1
:1021C000E228EB280030DA000030D9000030D800D7
:1021D0000030D7004A295708DB005808DC005908AE
:1021E000DD005A08DE001F30DE36DD0CDC0CDB0CB7
:1021F000890BF4285B08DF005F08E000D917FF3087
:10220000D705FF30D805FF30D9050030DA05963004
:10221000E102E11F0C290D2925296108803A973E2A
:102220000318132914291529E2280130DA36D90CAC
:10223000D80CD70C890B16290130DB005B08E107AD
:10224000031D2329242915293A2920306102031C62
:102250002A292B293529E2280130D735D80DD90D67
:10226000DA0D890B2D290130E1026108031D39299E
:102270003A292C29600803193E293F294A29D70900
:10228000D809D909DA09D70A0319D80A0319D90ACA
:102290000319DA0A08002100C5000030C60000302A
:1022A000C7000030C80045081C389031002091312B
:1022B00005302100C2004330C100E330890B5E29A4
:1022C000C10B5E29C20B5E29003203302100C10020
:1022D00041082000C100C6309B31C3239131210049
:1022E0004608C100C201C301C4014408CC00430830
:1022F000CB004208CA004108C9000830C935CA0DE0
:10230000CB0DCC0D890B7E294708C9040830C9358F
:10231000CA0DCB0DCC0D890B87294808C9043C3068
:10232000AB008030AA000030A9000030A8004C08A3
:102330002000AD0021004B082000AC0021004A081D
:102340002000AB00210049082000AA000030923193
:102350005222913120002D082100AF0020002C08CE
:102360002100AE0020002B082100AD0020002A082B
:102370002100AC008931A421913121002B08C0003B
:102380002A08BF002908BE002808BD000800003048
:1023900020003805C00000303905C10080303A0502
:1023A000C2007F303B05C30043084204410440049F
:1023B000031DDB29DC29E4290030BB000030BA0012
:1023C0000030B9000030B80000303C05C0000030DB
:1023D0003D05C10080303E05C2007F303F05C3008F
:1023E0004308420441044004031DF729F829002A48
:1023F0000030BF000030BE000030BD000030BC0027
:10240000BB1F032A042A1C2A0030C0000030C10070
:102410000030C2008030C3003808C0023908C13B18
:102420003A08C23B3B08C33B4308BB004208BA0022
:102430004108B9004008B800BF1F1F2A202A382AC7
:102440000030C0000030C1000030C2008030C30046
:102450003C08C0023D08C13B3E08C23B3F08C33BAD
:102460004308BF004208BE004108BD004008BC0050
:102470008030BB068030BF063F083B02031D4A2A5E
:102480003E083A02031D4A2A3D083902031D4A2A22
:102490003C08380203184D2A4E2A502A0310512AAC
:1024A000031408002000B20032080319582A592AE0
:1024B0006D2AAD1F5C2A5D2A6D2A2A09B4002B09FA
:1024C000B5002C09B6002D09B700B40A0319B50AE6
:1024D0000319B60A0319B70A752A2D08B7002C0884
:1024E000B6002B08B5002A08B4002D082C042B04D4
:1024F0002A04031D7C2A7D2A862A0030AD00003084
:10250000AC000030AB000030AA00FE2A9630AE00CE
:102510002E08B300962A0130AE002E08B307013012
:10252000B736B60CB50CB40C890B902AFE303705C3
:10253000031D9B2A9C2A8B2AB02A0130AE002E084C
:10254000B3070130B4070030B53D0030B63D003070
:10255000B73D0130B736B60CB50CB40C890BAA2ABE
:10256000FF303705031DB52AB62A9D2AC02A01303F
:10257000B3020130B435B50DB60DB70D890BBA2ACB
:10258000B61BC32AC42ACA2A023033020318C92A36
:10259000CA2AB72A3318CD2ACE2AD62AFF30B40544
:1025A000FF30B5057F30B605FF30B7050310B30C1B
:1025B0003308AE00AF01B001B1011830AE35AF0D38
:1025C000B00DB10D890BDE2A2E08B4042F08B50416
:1025D0003008B6043108B70432080319F02AF12A8A
:1025E000F62AAD1FF42AF52AF62AB7173708AD00E8
:1025F0003608AC003508AB003408AA0008002200F9
:1026000023082100A700220022082100A6002200A2
:1026100021082100A500220020082100A40022009A
:1026200027082000AD00220026082000AC00220070
:1026300025082000AB00220024082000AA00013059
:1026400092315222923120002D082100A300200057
:102650002C082100A20020002B082100A10020004E
:102660002A082100A0009E31D9269231210023089A
:10267000AF002208AE002108AD002008AC00220007
:102680002C0830022100E20022002D08313B2100FD
:10269000E30022002E08323B2100E40022002F0834
:1026A000333B2100E50065082000AD0021006408EF
:1026B0002000AC00210063082000AB00210062086C
:1026C0002000AA00013092315222923120002D08C0
:1026D0002100AB0020002C082100AA0020002B08BC
:1026E0002100A90020002A082100A8008931A42186
:1026F000923121002B08C4002A08C3002908C20017
:102700002808C1002200240828022100E600220037
:102710002508293B2100E700220026082A3B21004A
:10272000E800220027082B3B2100E900690820006F
:10273000AD00210068082000AC00210067082000DF
:10274000AB00210066082000AA000130923152221D
:10275000923120002D082100C00020002C0821000B
:10276000BF0020002B082100BE0020002A08210005
:10277000BD0086311F26923121004008ED003F0840
:10278000EC003E08EB003D08EA006D082000BF00A9
:1027900021006C082000BE0021006B082000BD0055
:1027A00021006A082000BC0022002F082000AD0094
:1027B00022002E082000AC0022002D082000AB00D3
:1027C00022002C082000AA000130923152229231BE
:1027D00020002D08BB002C08BA002B08B9002A08DD
:1027E000B8009531C825923120003B082100DA005D
:1027F00020003A082100D900200039082100D80023
:10280000200038082100D7009031D62092312100D5
:102810005A082200A300210059082200A20021002A
:1028200058082200A100210057082200A00008003B
:10283000FF302000E400FF30E500A701A8012E2CA6
:102840002708B03E86000130870001089D31B7257A
:10285000943101302000A7070030A83D230049082B
:10286000FE3EF600FF3003180030F7007708200026
:102870002802031D3D2C76082702031C402C412C06
:10288000202CFF306405F60000306505F7002808AD
:10289000F9002708F800A70A0319A80A7808B03E2B
:1028A0008600013087000108FA00FB0177087B06EB
:1028B000031D5C2C76087A0603195F2C602C632CB0
:1028C0002300CA15C72D6508F7006408F6007708CD
:1028D000F600F7012708B03E8600013087000108A6
:1028E000F800F90177087906031D782C7608780638
:1028F00003197B2C7C2C7D2C602C23004C0830068B
:102900000319832C842C852CC72DC801682D023017
:10291000F6007608C80032082000A600230033081D
:102920002000A50023003535F6004808B03E86009B
:1029300001308700760881000130F6007608C8076C
:102940003508F60076082000A0002608A800250813
:10295000A700DA2C2735A03E860001308700403FD3
:10296000F600413FF7007708F80023004808B03E22
:10297000860001308700780881000130F600760873
:10298000C80720002735A03E8600013087000108D7
:10299000F60023004808B03E860001308700760824
:1029A00081000130F6007608C80701302000A70733
:1029B0000030A83D20082507F60026080318260A3F
:1029C000F70077082802031DE72C76082702031C6E
:1029D000EA2CEB2CAA2C7B2D3208F600F7017608A6
:1029E0002000A7007708A8000830A735A80D890B9C
:1029F000F52C23003308F600F70176082000A70421
:102A00007708A80423003408F600F70176082000B0
:102A1000A3007708A4000830A335A40D890B0C2D62
:102A200023003508F600F70176082000A304770894
:102A3000A4042735A03E8600013087002308C03F4C
:102A40002408C13F0630F60076082300C8007B2D1D
:102A50003308F600F701F635F70D76082000A500DB
:102A60007708A6000730A1000030A2002608A800C1
:102A70002508A700542D2108B03E860001308700AC
:102A80000108F600F7012735A03E860001308700D7
:102A90007608C03F7708C13F0130A1070030A23D52
:102AA0000130A7070030A83D230036082000250785
:102AB000F60026080318260AF70077082802031DE7
:102AC000632D76082702031C662D672D3B2D222DD2
:102AD0003108F600F7017708003A0319702D7B2DB5
:102AE0007608033A0319872C053A0319EC2C163A99
:102AF0000319282D7B2DFF302000E400FF30E50076
:102B0000A701A801912D2708B03E8600013087005B
:102B100001089D31B725943101302000A70700300E
:102B2000A83D23004808F600F70177082000280296
:102B3000031D9C2D76082702031C9F2DA02D832D9D
:102B40006408F60023004808B03E86000130870084
:102B5000760881000130F6007608C8072000650875
:102B6000F60023004808B03E860001308700760852
:102B700081000130F6007608C807200018102300F5
:102B8000C60122008E172100111623009E16080090
:102B900020003B088039C0004008C8003B35C00019
:102BA0004008CA00BA1FD52DD62DD72D4A144A0881
:102BB0000319DB2DDC2DEC2D4A0A031DE02DE12D40
:102BC000E92D0030BB000030BA000030B900003001
:102BD000B800BA17BB01F42D0030BB000030BA00BA
:102BE0000030B9000030B8003F088039C00040080C
:102BF000C900490848060319FE2DFF2D002E48176D
:102C00003F35C0004008C900BE1F072E082E092E00
:102C10004914490803190D2E0E2E1E2E490A031DB4
:102C2000122E132E1B2E0030BF000030BE000030CD
:102C3000BD000030BC00BE17BF01262E0030BF0013
:102C40000030BE000030BD000030BC004A08490220
:102C500003182B2E2C2E702E481F2F2E302E342E84
:102C60008030C0004008C8064A08C0004008CB00B9
:102C70004908C0004008CA004B08C0004008C9000D
:102C80003808C0004008CB003C08C0004008B8002D
:102C90004B08C0004008BC003908C0004008CB0009
:102CA0003D08C0004008B9004B08C0004008BD0006
:102CB0003A08C0004008CB003E08C0004008BA00F7
:102CC0004B08C0004008BE003B08C0004008CB00D5
:102CD0003F08C0004008BB004B08C0004008BF00D0
:102CE000CB014908C000C1014108C3004A084002A5
:102CF000C200031CC3034308803AC400803044026E
:102D0000031D842E1A304202031C872E882EC02EEB
:102D100020003B083A0439043804031D902E922EFB
:102D20000130932E0030C0004008CB000030BB00C3
:102D30000030BA000030B9000030B8004908C000C7
:102D40004008CA00C72E4B1CA62EA72EAD2E4B3610
:102D50000138C0004008CB00AF2E0310CB0C381C4C
:102D6000B22EB32EB42ECB170130C000BB37BA0C35
:102D7000B90CB80CC00BB62E0130C0004008CA0711
:102D8000200049084A02031CC62EC72EA32E481B4A
:102D9000CA2ECB2E032F4A08031DCF2ED02ED92E9C
:102DA0000030BB000030BA000030B9000030B8007D
:102DB000FF2F3C08B8073D08B93D3E08BA3D3F0823
:102DC000BB3D3B1CE42EE52E8F2F4B1CE82EE92E3D
:102DD000EF2E4B360138C0004008CB00F12E031017
:102DE000CB0C381CF42EF52EF62ECB170130C0007C
:102DF000BB37BA0CB90CB80CC00BF82E0130C000B0
:102E00004008CA078F2F3B08803AC0003F08803A2D
:102E10004002031D152F3E083A02031D152F3D08E1
:102E20003902031D152F3C0838020318182F192FDB
:102E3000512FFF30C000FF30C100FF30C200FF3013
:102E4000C30038083C02C40039083D3BC5003A08BD
:102E50003E3BC6003B083F3BC7004408C00745084F
:102E6000C13D4608C23D4708C33D4308BB00420878
:102E7000BA004108B9004008B8008030C0004008DE
:102E8000C806CB09CB0A4B08031D472F482F592FE3
:102E90000130B8070030B93D0030BA3D0030BB3DCD
:102EA000592F3C08B8023D08B93B3E08BA3B3F08E1
:102EB000BB3B3B083A0439043804031D602F612FE3
:102EC0008B2F4B08031D652F662F8B2F0030BB0007
:102ED0000030BA000030B9000030B800FF2F0130D8
:102EE000B835B90DBA0DBB0D890B702FCB1F792FDB
:102EF0007A2F7B2F38144B1C7E2F7F2F822F0314A9
:102F0000CB0D842F0310CB0D4A080319882F892F6E
:102F10008B2F0130CA02BA1F8E2F8F2F6F2FC9013E
:102F2000CB1F932F942FA22F4B087F390319992F72
:102F30009A2F9D2FC901C90AA22F381CA02FA12F9B
:102F4000A22F9A2F49080319A62FA72FD42F01309B
:102F5000B8070030B93D0030BA3D0030BB3D3B1CE6
:102F6000B22FB32FD42F3808C0003908C1003A0857
:102F7000C2003B08C3000130C400C337C20CC10CFF
:102F8000C00CC40BBD2F4308BB004208BA00410867
:102F9000B9004008B8004A0A0319CF2FD02FD42F08
:102FA0000130C0004008CA074A0A0319D82FD92F98
:102FB000DE2F4A08031DDD2FDE2FEC2F0030BB0073
:102FC0000030BA000030B9000030B8004A08031DD4
:102FD000EA2FEB2FEC2FC8014A1CEF2FF02FF22F16
:102FE000BA17F62F7F30C0004008BA054A36C00035
:102FF0004008BB00C81FFD2FFE2FFF2FBB17080086
:10300000A1341A3419341B3411341B340F341034E6
:1030100094341F3402341B3473341E34A6341A34EF
:10302000AB341A34B0341A34B5341A34BA341A34CE
:10303000BF341A34C4341A34C9341A3442341E34F6
:1030400026349E3478343E34EE34E93491343E34C0
:103050001334CE34CC343E34AA34AA342A343F3428
:10306000D134F734173437348034713431343F3449
:1034EE0008000130080020009111080024009512F8
:1034FE000800210091110800240016140800240071
:10350E0096140800240016150800240096150800CD
:10351E0024001108080020009115080024009616BA
:10352E001616080024009612161608001A302100EE
:10353E00970008002400BC10BB010E3008009A3121
:10354E0086229A31013008009A3186229A31023051
:10355E0008009A3186229A31013008009A31892268
:10356E009A31003008009A3199229A3105300800BC
:10357E009A3195229A310A3008009A3195229A3161
:10358E00093008002400BC10BB010E3008000130C9
:10359E009D3147259A31080000309D3147259A31DB
:1035AE0008002000AA002A08240091000800240028
:1035BE00160E890C890C013908002000911DE82A8D
:1035CE00E92AE42A080070302100990022009601B1
:1035DE00080020002B08DD002A08DC00080020006F
:1035EE002B08DF002A08DE0008006400800101318C
:1035FE00890BFD2A003424003C109A318C229B3119
:10360E00043008000B112000620895009B316523E1
:10361E009B31080024003C1436359A31D8229B3158
:10362E000330080024003C140314360D9A31D822BE
:10363E009B310530080020002B082400DE002000FE
:10364E002A082400DD00080020002B082400E200D8
:10365E0020002A082400E100080020002B08240086
:10366E00E00020002A082400DF00080020002B08BC
:10367E002300ED0020002A082300EC0008002000A3
:10368E002B082300EF0020002A082300EE0008007C
:10369E00803024009400083095009601133092007B
:1036AE009512080020009601E030970011102300BB
:1036BE00C7010830F0007008C900080020005C083F
:1036CE005D0403196B2B6C2B712B5D088A005C0853
:1036DE000A009B31080020005E085F040319782B56
:1036EE00792B7E2B5F088A005E080A009B3108004A
:1036FE00200011106108F1006008F00088310020F0
:10370E009B319B3172239B310800932B9A31E4221B
:10371E009B319D31E5259B312400BC18972B982BAE
:10372E008D2B080020003008AB002F08AA003108AE
:10373E00B2003208AC0000308731D3279B3108002D
:10374E002400951AAB2BAC2BB42B80309400083090
:10375E00950096011330920095160800200030084F
:10376E00AB002F08AA003108B2003208AC000230BC
:10377E008731D3279B3108002000C5004508C200C1
:10378E004208BD004108C300C4014308BE004408FE
:10379E00BF0068309D3126259B3108000230200085
:1037AE00AA000030AB0033089C3162249B310030FC
:1037BE002000AF00B000B1019B3199239B31043042
:1037CE00080001302000AA000030AB0033089C3105
:1037DE0062249B3100302000AF00B000B1019B315C
:1037EE0099239B310230080002302000AA000030DD
:1037FE00AB0033089C3162249B3100302000AF00B7
:10380E00B000B1019B3199239B3102300800013089
:10381E002000AA000030AB0033089C3162249C319A
:10382E0000302000AF00B000B1019B3199239C31D4
:10383E00043008002000AB002300CA01CB01200099
:10384E002B08AA002A082300CC00C701083020004C
:10385E00AA002A082300C90022008E1308002100A6
:10386E001508C03917389500F83020009500F8304B
:10387E00AC002C08E2000B118B167730AA001A3020
:10388E00AB009A31F0229C3108009B314F239C31C2
:10389E009C3179249C319A31EA229C319A319D22B5
:1038AE009C319C3192249C319C3136249C319F3129
:1038BE0050279C3108002000AD002400BC1D682C50
:1038CE00692C782C20002D08AC002C082400B700A1
:1038DE0020002B082400B90020002A082400B8007C
:1038EE00BC11080022008C018D018E013F30210099
:1038FE008C0070308D003F308E000F3023008E0014
:10390E008D0117308C0024008D018C01210095173C
:10391E0022009D01080020009901B1309700E0308F
:10392E00960011101708E1001608E000210011148E
:10393E0059302000AA001B30AB009A31F6229C3180
:10394E00013020009800080020003308860087010F
:10395E00403FAA00413FAB003308023E860087017C
:10396E0001089C3162249C3100302000AF00B00071
:10397E00B1019B3199239C310230080000308B1B22
:10398E0001302000AC008B132A0823009100200088
:10399E002B082300920015131514000000002000C0
:1039AE002C0C031C8B1303188B17230014082000F8
:1039BE00AB00230013082000AA00080000308B1B68
:1039CE0001302000AC008B132A0823009100200048
:1039DE002B08230092001513151615155530960059
:1039EE00AA30960095140000000023001511200047
:1039FE002C0C031C8B1303188B1708002000AB0133
:103A0E00AB0A2400BC180C2D0D2D232D3C11FF30BC
:103A1E002000AA002A082400B6009A317A229D318D
:103A2E009A3180229D319A317D229D3124003B08AE
:103A3E002000AA002A08AB0020002B080800200056
:103A4E00C000200040089F310F279D31003A031916
:103A5E00312D322D282D20003F08AB003E08AA0044
:103A6E003D089C3162249D319A31CE229D319D318B
:103A7E0005259D31013A0319452D462D3E2D080091
:103A8E002000BB00BC01BC0A2400BC184F2D502DD9
:103A9E00672DBC142000BC013B080319572D582D6F
:103AAE005C2D2400BA01BA0A612D0230BA003A0820
:103ABE002400BA009A3183229D319B318C239D3193
:103ACE0020003C0808002000B200AE01AF012A0819
:103ADE00AC00AD012C08B0002D08B100321C782DC1
:103AEE00792D7D2D3008AE073108AF3D0130B03550
:103AFE00B10D890B7E2D0310B20C3208031D882DDB
:103B0E00892D752D2F08AB002E08AA000800200065
:103B1E00C000200040089F310F279D31003A031945
:103B2E00992D9A2D902D20003F08AB003E08AA003B
:103B3E003D089C3162249D3100302000AF00B00062
:103B4E00B1019B31B5239D319A31D3229D319D31E7
:103B5E0005259D31013A0319B52DB62DAE2D080060
:103B6E00F2007208F000F10170082000E4067108FE
:103B7E00E506F501F301F401641CC62DC72DCB2D0E
:103B8E000130F3000030F4000130E536E40C890B0F
:103B9E00CC2D730874040319D52DD62DDA2D0130D2
:103BAE00E406A030E5060130F0007008F507083095
:103BBE007502031CE32DE42DC12D08009A317A22E3
:103BCE009D3124003C1CEC2DED2DFB2D9A31DE2277
:103BDE009D31003A0319F42DF52DFB2D0F302000E9
:103BEE00B70037082400BA0024003A082000B700B6
:103BFE00B801B735B80D0030370784009830383D1E
:103C0E008500013F8A00003F0A009E312000B90066
:103C1E0039082400BA00080020009601E030970011
:103C2E00111023004808460203181E2E1F2E2A2E9E
:103C3E004608B03E86000130870001089A00013028
:103C4E00F0007008C60746084806031D2F2E302EBA
:103C5E00412E9E1C332E342E302E210011122300A5
:103C6E009E12C7010830F0007008C90022008E13A2
:103C7E0020001814080024003C1002302000B4006C
:103C8E0034082400BB00532E9A31B0229E31722E7E
:103C9E009A31B5229E31722E2E082000B4003408BF
:103CAE00B3000430203E860002308700413F8A0078
:103CBE00403F0A009E312000B500B6013608003A9A
:103CCE0003196A2E4F2E3508023A03194B2E013A6C
:103CDE0003194B2E4F2E08002400BC15832E9A314B
:103CEE00B0229E31A42E9A3192229E310330A42E00
:103CFE009A31B5229E31A42E2C082000B40034082F
:103D0E00B300240021088A0020080A009E312000FA
:103D1E00B500B6013608003A0319962E7F2E3508E7
:103D2E00013A03197F2E033A0319762E013A03192D
:103D3E00762E073A03197A2E7F2E08002000960160
:103D4E00E03097001110230019082000A90023006D
:103D5E004708B03E86000130870020002908810008
:103D6E000130A90029082300C70707304706031DA5
:103D7E00C12EC22ECF2E10303106031DC72EC82ED7
:103D8E00CF2E3608013E2000A90029082300C907BE
:103D9E0047084906031DD42ED52ED82E943118244B
:103DAE009E31080080302100A30627082000BB00AA
:103DBE00210026082000BA00210025082000B900A5
:103DCE00210024082000B800210023082000BF0095
:103DDE00210022082000BE00210021082000BD0085
:103DEE00210020082000BC009531C8259E312000FE
:103DFE003B082100A30020003A082100A200200069
:103E0E0039082100A100200038082100A000080078
:103E1E002000AB00AC01AC0A24003C19172F182F60
:103E2E004D2F20002B08AA002A082400B600BC1033
:103E3E003C153C100E302000AA002A082400BA00BF
:103E4E00F430B4000130B500BC157830A0001A3043
:103E5E00A100AC017830A2001A30A300AD01783079
:103E6E00A4001A30A500AE017830A6001A30A700C3
:103E7E00AF010230A8000030A900B0019A317A22B9
:103E8E009F319B31A7239F312000AC0120002C08CD
:103E9E00080021009112A5302000AA001E30AB00B0
:103EAE009B313D239F312100111213302000AA00B7
:103EBE001E30AB009B3146239F31083023009F00FC
:103ECE0090309D0024309E00CF309B009C0100302E
:103EDE002000AA000030AB009B312B239F31003015
:103EEE002000AA000030AB009B3134239F310030FC
:103EFE002000AA000030AB009B3122239F3120000E
:103F0E00D801DB01DA014030AC002C08E300D90106
:103F1E00FD01FC012100911608009A318F229F317C
:103F2E002000B400240037088600870120003408E2
:103F3E0081000130B40034082400B7070130B80204
:103F4E000030B93B380839040319AE2FAF2FB42F08
:103F5E009A3199229F310530DF2FBC15BE2F9A3131
:103F6E00C4229F31DF2F9A31BF229F31DF2F2C08C1
:103F7E002000B4003408B300240021088A00200871
:103F8E000A009F312000B500B6013608003A031929
:103F9E00D12FBA2F3508013A0319BA2F033A031954
:103FAE00B62F013A0319B62F073A0319BA2FBA2FB3
:103FBE00080000340034003400340034003400347F
:103FCE000034003400340034003400340034003443
:103FDE000034003400340034003400340034003433
:103FEE000034003400340034003400340034003423
:103FFE000034003400340034003400340034003413
:10400E000034003400340034003400340034003402
:10401E0000340034003400340034003400340034F2
:10402E0000340034003400340034003400340034E2
:02403E0000344C
:020000040001F9
:08000000FF3FFF3FFF3FFF3F00
:04000E00FA3FFF3F77
:00000001FF
